:1000000038450020F51F000037C50100E11F000042
:1000100000000000000000000000000000000000E0
:10002000000000000000000000000000452100006A
:100030000000000000000000F920000000000000A7
:10004000B1220000F53E0100B1220000B122000003
:10005000B1220000B1220000B1220000B122000054
:10006000B1220000B1220000B1220000B122000044
:10007000B1220000B1220000B1220000B122000034
:10008000B1220000B1220000B1220000B122000024
:10009000B1220000B1220000B1220000B122000014
:0800A000B1220000B1220000B2
:1000A80002B4714649084900095649008E4402BC09
:1000B8007047C04602B4714649084900095C4900C6
:1000C8008E4402BC7047C04603B4714649084000DC
:1000D8004900095E49008E4403BC7047002934D0AA
:1000E8000123002210B488422CD301242407A14202
:1000F80004D2814202D209011B01F8E7E400A142BF
:1001080004D2814202D249005B00F8E7884201D359
:10011800401A1A434C08A04202D3001B5C08224331
:100128008C08A04202D3001B9C082243CC08A042A2
:1001380002D3001BDC082243002803D01B0901D08E
:100148000909E3E7100010BC704701B5002000F072
:100158005FF802BD0029F8D003B5FFF7C1FF0EBC58
:100168004243891A1847C046002941D010B40400F8
:100178004C40A44601230022002900D5494200280A
:1001880000D5404288422CD301242407A14204D23E
:10019800814202D209011B01F8E7E400A14204D21E
:1001A800814202D249005B00F8E7884201D3401A35
:1001B8001A434C08A04202D3001B5C0822438C0857
:1001C800A04202D3001B9C082243CC08A04202D3C1
:1001D800001BDC082243002803D01B0901D00909B1
:1001E800E3E710006446002C00D5404210BC70477D
:1001F80001B5002000F00CF802BDC0460029F7D078
:1002080003B5FFF7B3FF0EBC4243891A1847C0462F
:100218007047C0461C2101231B04984201D3000CDF
:1002280010391B0A984201D3000A08391B09984261
:1002380001D30009043902A2105C40187047C04677
:100248000403020201010101000000000000000097
:10025800414208401C2101231B04984201D3000C91
:1002680010391B0A984201D3000A08391B09984221
:1002780001D30009043902A2105C401A7047C04635
:100288001B1C1D1D1E1E1E1E1F1F1F1F1F1F1F1F85
:10029800002B11D1002A0FD1002900D1002802D04B
:1002A8000021C943080007B4024802A1401802907F
:1002B80003BDC0465DFFFFFF03B4684601B5029861
:1002C80000F06CF8019B9E4602B00CBC7047C0461B
:1002D800D0400B00D1409C46203AD34018435242AC
:1002E80063469340184370479140030090409C46F2
:1002F800203A9340194352426346D340194370470A
:1003080010B5002903D1FFF785FF203002E008006F
:10031800FFF780FF10BDC04602780B78002A03D093
:10032800013001319A42F7D0D01A704703000A7899
:1003380001311A700133002AF9D170470023C25CD9
:100348000133002AFBD1581E7047F7B5040C0D0085
:1003580091B20F0061438C460600019383B2100CE2
:100368005F43444358433B0C60441B18994202D9ED
:10037800802149026418019955437143180C0419E6
:100388001B04BFB24919D819091903B0F0BD10B53B
:10039800002802D0FFF75CFF013010BDF0B5060061
:1003A8000F0015001C0085B08B4263D801D1824232
:1003B80060D821002800FFF7A3FF39000090300023
:1003C800FFF79EFF009B21001B1A1A0028000393C9
:1003D800FFF78AFF00900191B94245D801D1B04298
:1003E80042D8009B019C01200021039AF61AA741DC
:1003F800FFF77AFF04000D00039B002B2BD0019B15
:10040800009ADB0750081843019B5908039B9C4638
:10041800B9422CD801D1B04229D832003B00121A77
:100428008B41012692185B410027B6185F410123D2
:100438005B429C446346002BEAD130003900039AA2
:10044800FFF746FF039AA4197D4106000F00FFF746
:100458004BFF241A8D410A9B002B01D01E605F6060
:100468002000290005B0F0BD00240025C4E7B61916
:100478007F41DCE700240025EDE70000F0B51024FB
:1004880097B006AFBA60F96041781D00837904918E
:1004980081785A4A0391C178029101790191417991
:1004A80020190091C0191E211AF0FAFB231954498A
:1004B800D819FFF731FF061E46D1524C0321200000
:1004C800514A1BF057FD6B4688B07B6006AA4F4B1C
:1004D800536110231900DB18DB19936180239B00FB
:1004E80093834B4B13615218E621330020004901D6
:1004F80001F004F97B689D4603212000454AFB680A
:100508001BF03FFD0321BB682000434A1BF039FD67
:10051800AB8803212000414A1BF033FDAB88B3426E
:1005280015DC14232800F9181CF0A7F83B8B002BC6
:1005380005D01423F8181CF0D9F8051E10D1032192
:100548002000374A1BF016FDBD4611B0F0BD2B68E0
:100558009B5D03212000334A1BF013FD0136DDE7C4
:100568003B8B8342EBD31423F8181CF0BFF8013DF2
:100578000300EDB2092807D8072810D8821ED2B286
:10058800012A26D9284A05E00A28FBD17B691B786D
:100598005BB2264A032120001BF0F3FC13E06E46F1
:1005A8008AB07B6906AAD361214B22491384224B66
:1005B8005161956113619321320000232000890164
:1005C80001F09CF8B54614232900F8181CF07EF8B1
:1005D800ACE703212000194A1BF0CCFC0026B542E9
:1005E800F1DD7B699A5D9B195B781B02134303213C
:1005F8002000134A1BF0C5FC0236F0E77C09020014
:100608009A090200B8EA0100AC090200BC0902001C
:1006180003000001C8090200D5090200E20902002E
:10062800070A0200010A0200640A0200530A0200D3
:1006380001030000250A020004000001370A020035
:10064800480A02001FB5002003F02CFA031E08D048
:1006580001210C4A0C481BF094FC0120404204B0D4
:1006680010BD0A490C2201A81EF064F8084901A827
:1006780004F06CFB0028F2D0034C03000121200099
:10068800044AE8E77C0A0200B8EA010020EC01000D
:10069800850400009B0A0200F0B597B00593042377
:1006A8000B921A400B9B0A92DA0807231A40013270
:1006B80007001C9D03910D92820700D0C6E1041D1E
:1006C800002804D0072909D81C20404254E1039A85
:1006D8001A401300141D0822D31A0393059B0426FD
:1006E800013B0693002309930C9304930293013B67
:1006F80007930196002F01D0059B23600D9B002BCB
:1007080000DDF1E09D4B059A9A4203D39C4B9A4237
:1007180000D2E9E00B99E21B9308890700D50DE1A7
:10072800049A0F2A00D9BBE0002F00D10EE10499EA
:100738000EAA53540A00079912AB99540C9B013323
:100748000C93F4E008260196069B01330693069B5A
:100758009878002800D105E1029B002B08D12528B4
:10076800F2D1079B01330793012302930426EAE79A
:100778007A284AD84B280ED8472846D829282CD872
:1007880025283FD041D82028DED02338434258417D
:10079800C3B20293D8E74C382E2836D8FFF780FC2E
:1007A800D435353535353535353535353735353550
:1007B800353535353561353737616161D437D235EF
:1007C800D435183718353579E63735353735E600F5
:1007D800002308930426029327E0012213002A38F5
:1007E800C0B2834067490B42AED1E22118008905A7
:1007F80008400B4235D11900114002911342A3D091
:10080800089013E0079B013B07930023C1E70022F0
:10081800069B08925B7802926C2B07D10426069BF4
:1008280001961B786C2B01D1B6190196013CA019D1
:100838003100FFF753FC70430400002F3BD0019BAD
:10084800039ADB1B1B18934200D93DE7089B002B3A
:1008580041D1019B042B20D108CD0360042304342B
:1008680015E0072107358D4364188C430CCD002F04
:1008780008D00131C91B03980919814200D923E71F
:100888002260636000230826029333000834019332
:100898005AE7029B089300239CE7019B082B01D091
:1008A800162012E7072307359D430CCD02604360ED
:1008B80008230834EBE7089B002B0CD1019B042B81
:1008C80001D10435CAE7019B082BE9D10735013B63
:1008D8009D430835ECE7069B023306930D9B013BCD
:1008E8000D9308CD059305E70B9B9B0722D50121A6
:1008F800E21B9308802080008242D1D2049A0F2AFA
:10090800CED8002F1CD00498DBB20EAA13549C46F4
:10091800079B12AA1354002900D10FE780226346CF
:10092800524213430EAA1354099B01330993049BA3
:1009380001330493069B0434013B07E70021D9E700
:10094800002903D0039B01330393F0E7039B023391
:1009580003930A9B002BEAD10598FFF7EFFC039B52
:100968001B18F1E78022E31BD200934298D2002F94
:100978000AD103980838C01817B0F0BDC4E80100C0
:1009880038240200DAFF00009B08302238603B70F0
:100998006B469B180A9A1B78002A0BD0FB70099BA0
:1009A800BB70002B1BD100250EAE049BAB421BD1A4
:1009B800E01BE1E77B70F2E70EADED560EA9595C3E
:1009C800002D07DA039EA5180140B54200D97BE641
:1009D80021700134013304999942EDD1E3E70122F2
:1009E80000237F20D21BF6E7099B002B02D0337827
:1009F8007F2B1BD80A9B002B1BD012ABEB5C237000
:100A08000023013401930123019ADB1B9B18039AED
:100A1800E318934200D957E63378019A23700134DA
:100A2800200005991DF086FE019BE418013501366A
:100A3800BBE733789B00FB181A6805920A9A059859
:100A48001A60FFF77BFC431C0193DCE70E203CE6B1
:100A5800F0B59BB000AF3B628023FB181B68060013
:100A68001B07DB0F7B618378F9623A63BB6300295C
:100A78000AD10478BB6BA400E41845780419FB6A12
:100A88009D421BD8A31BFB62F378BB61BB6B002B99
:100A980004D08023FB181B68DB0719D4BB69002B23
:100AA80047D13B6B002B03D030003A6AF96A98476C
:100AB800FB6AFB63BD46F86B1BB0F0BD0134200038
:100AC800FFF73CFCFB6A013001332418FB62D6E7D0
:100AD8003378FB619B007B627368BB627B6AF518A5
:100AE8003B6B002B00D029E1FB6AFB63BB6BEC1866
:100AF8000023BB63A54232D02B789B009859FFF79F
:100B08001DFC84217B181B680130002B0CD0882227
:100B1800BA18BB6B1268934206D27A1812685B0047
:100B28009852BB6B0133BB63FB6B01351B18FB632E
:100B3800E0E78023FB181B689B07B2D53378FB617D
:100B48009B007B627368BB627B6AF5183B6B002B6A
:100B580077D1FB6AFB63BB6BEC183B6BBB638022F2
:100B68000523BA181268250013405A42534101332D
:100B7800FB62BB695B00E3183B633B6BAB4299D0FC
:100B88002B787B636B789B009C59B44B9C4202D3B7
:100B9800B34B9C4223D37B69002B33D0796BB86A63
:100BA8001AF00FFE00282DD06C468AB06A46AD4B6D
:100BB8005361BB6A93617B6BD36180239B00138471
:100BC800A94B136192210023A8481032890100F033
:100BD80095FDA546FB6B023BFB630235CDE77B69C0
:100BE800002B05D0796BB86A1AF0EBFD0028DBD131
:100BF80080230122FB181B68134209D1FB6BFA6A98
:100C08009B1AE9E780230222FB181B681342E4D0F1
:100C18002000FFF793FB84217B181B68002B0DD065
:100C28008822BA18BB6B1268934207D279180968F0
:100C38005B00421C5A52BB6B0133BB63FB6B1B1836
:100C4800CAE7BB6B1C1E7B6315D0802104237A186E
:100C580012681A4014007A637A1812681A420AD085
:100C68000023BC6B7B63183340229B182900BA6BA6
:100C7800D8191DF05FFDBB6BEB18FB60FB63BB690C
:100C88005B003B613A69FB68944663447B60FB6B9D
:100C98007A68934257D17B6B757800215A19802363
:100CA800FB181B68D2B29B0700D461088020381853
:100CB80000680023C00705D48033FB181B685B0756
:100CC800DB1723407270B370F17030003A6A796AAA
:100CD8003B6B9847F863002800DAEBE6FB69402095
:100CE8003370BB6B2100B370BB693A6AF370182389
:100CF8001B18D81975703B6B9847041E00DAA9E0D9
:100D0800FB6ABA6BF868991A7B6A3A6AC91A3B692E
:100D18009C46C91A60443B6B9847002800DA9BE060
:100D28000025FB6B1C192318FB637B6B9D4261D369
:100D380000213A6A08003B6B9847BBE6BB6B00246E
:100D48007B63082390E7FB6B444A1B78BB60FB6B13
:100D58005D78AB009B59934202D3414A93420CD32E
:100D68007B69002B30D0B968B86A1AF02AFD0028D0
:100D78002AD0FB6B0233FB6389E77B69002B05D024
:100D8800B968B86A1AF01DFD0028F2D18023012243
:100D9800FB181B6813420AD07B6B9B180732402153
:100DA8005218796BD219DBB255547B63E1E7802383
:100DB800FB181B685B07DCD5182240215218631CFE
:100DC800D2191555DCB2D4E780230222FB181B6820
:100DD800134203D07B6B06320133E0E7402118222F
:100DE8005218B968631CD2191155DBB20234E4B247
:100DF800D554BEE7402208239B18DB19EB5C073269
:100E0800BA18137084229B009B59BB63BB181C68DB
:100E1800002C01D06B00E45A47230121F8183A6AE4
:100E28003B6B9847002817DBFB6B1B18FB63002CF8
:100E380004D1B86BFFF782FA013084B221003A6A14
:100E4800B86B3B6B9847002806DBFB6B01351B181A
:100E5800FB636AE7F8632DE6F8632BE6C4E8010054
:100E680038240200CF0A02000400000138EB010018
:100E7800014B18607047C04680010020F7B5040098
:100E88000D001E00019219F0D5FB03001DF00CFDAA
:100E9800054F32003B5001992800A0471DF004FD82
:100EA800385801F0D7F8C04608000000F0B585B002
:100EB8000392058B04002B0712D407231D40022937
:100EC8002BD120001AF02FFF00280FD00138238BD8
:100ED800042813D80722FFF7EDF82011A0BCC200A0
:100EE8001023012900D020231D432583039B002BB9
:100EF80002D162B6BFF36F8F05B0F0BD07261E4062
:100F0800AE4200D0B3E01023258B1D4200D1BEE0D5
:100F18002A009A43072322831D4063690293268B84
:100F2800002B26DA002327686360236007339E437B
:100F3800063B1E43268307260022238B01921E4070
:100F4800AE424BD1002F72D0082213432383039B58
:100F5800002B02D162B6BFF36F8F002F00D18AE059
:100F68003D68390032002000029B1AF00AFF2F006A
:100F7800F3E7072332001A40511F01291AD800212C
:100F88002768616021609E43062A09D13B0003E07F
:100F9800628B013262831B68002BF9D102331E4336
:100FA800200026831AF0BFFE0028C4D02023334334
:100FB8002383C0E7042A09D19E43200026831AF020
:100FC800B2FE002802D020233343238300220726C1
:100FD800238B17001E400192AE4294D0A268002ACB
:100FE800B0D0082213432383039B002B02D162B69F
:100FF800BFF36F8FA1680029AFD00B680393002956
:10100800ABD04B6832001D002000029BA847039B11
:10101800002B00D01B680399F0E70626216993434B
:1010280009680191334300272383B54221D1019AEE
:10103800002A00D167E7082213432383039B002B70
:1010480002D162B6BFF36F8F20001649019B984703
:1010580014E021690426496893430191E2E70526D3
:10106800216993438968334301919BB2DBE70027E9
:1010780001970297B2E7019B002BE5D1EFF31087A8
:1010880072B608220397238B934323833BE72023DD
:101098001D4200D12AE72A009A43072322831D40D4
:1010A8000FE7C046ADBD010070B505000E001AF08F
:1010B80056FE002832DBEFF3108272B60724288B25
:1010C8006B8B274904408B4203D1002A43D00B2065
:1010D80032E0022C0BD101336B83002A22D0280086
:1010E8000023022231001AF04CFE022016E0062CE2
:1010F8001CD82000FEF7DEFF041A1A1A0422040086
:10110800002333606B68002B09D16E602E60002CC1
:101118001BD102212800FFF7C9FE200070BD1E6008
:101128006E60F4E762B6BFF36F8FD8E7002A02D18A
:1011380062B6BFF36F8F05204042EFE7002A02D165
:1011480062B6BFF36F8F8620F6E7002AE5D162B654
:10115800BFF36F8FE1E762B6BFF36F8FB7E7C046A3
:10116800FFFF0000F7B505000600002D01D1300093
:10117800FEBD2800FFF76CF801238340DA430E4FC9
:1011880004019D433B1901931B7B0092002BECD07B
:10119800E3591B69002B09D1009B3C191E40636869
:1011A80004221968019800F05DFADEE738199847BB
:1011B8000028DAD1F0E7C04690EB0100F0B5002234
:1011C80089B00F490F481DF00FFA002400260027A8
:1011D8000E20C0220C4D03900696079728000B4B53
:1011E8000B490494029401940094920018F058FF5B
:1011F800084928001DF072F8200009B0F0BDC0466B
:1012080021120000300B0020B00600201515000048
:10121800B0260020830B020010B5024818F06EFCBF
:1012280010BDC04634050020F7B500902048019154
:101238001AF057FE061E36D000252800FEBD237B77
:10124800002B0FD02368DB68002B01D020009847C3
:1012580023681B69002B1ED16368042220001968CB
:1012680000F000FA01361034124B9C42E7D3009B81
:10127800002BE2D0A42600277600002DDCD0280021
:10128800FFF770FF019B0500002BF6D030003900F6
:1012980019F0AEF9F1E7200098470028DCD03B00B0
:1012A800B3401D43DEE705000127034CDCE7C046D9
:1012B80050120020A0EB010090EB0100014B8000D0
:1012C800C05870475CEC0100030010B50800002B03
:1012D80005D0044A136000F0B7FC002010BD1620AA
:1012E8004042FBE78401002010B5054C2378002B11
:1012F80002D1044818F002FC0123237010BDC04637
:10130800FC2500203405002010B5040007481AF019
:10131800E8FD002C03D0012105481DF0AAF9054875
:101328001DF06EF9044818F0E9FB10BD48120020C2
:101338004C120020300B00203405002010B500218D
:1013480001481DF0A5F910BD4812002070B5FFF73F
:10135800F5FF0500084C094B9C4200D370BD63683B
:101368005B79002B06D023685B68002B02D029002C
:10137800200098471034EEE790EB0100A0EB010045
:1013880010B5044C044920001AF054FB034B1C60B0
:1013980010BDC0469C04002048EC0100401200200B
:1013A80000238021064A10B51370064A090213600B
:1013B800054A06481360FFF787FFFFF7E1FF10BDF6
:1013C800FD250020481200204C120020E3BE010039
:1013D80010B5044C01000022002320001AF04BFB3A
:1013E80010BDC0469C04002010B502481AF0DDFB71
:1013F80010BDC0469C04002010B5034B01001868BE
:101408001AF024FC10BDC0464012002010B5024856
:101418001AF055FC10BDC0469C04002070B5234B43
:101428001878002836D0FFF7DFFF051E0AD0012103
:101438001F481DF01EF91F4C1F4B9C422BD3280040
:10144800FFF7DAFF1D4B1E4C1B68002B17DD1DF044
:1014580081F8FA2200239200FEF777FF4D04C20BB1
:10146800CB0B2A4320686168121A8B411100002BAC
:1014780003D1FA239B00994201D9FFF767FF22683D
:101488006368FA200021800012184B4122606360D3
:10149800FFF7BCFF70BD63685B79002B04D023683D
:1014A800290020001B6898471034C5E7FC25002058
:1014B8004C12002090EB0100A0EB01004812002024
:1014C800280B002070B50E4D297800290CD1012079
:1014D800FFF7AAFE0B4C0C4B9C4206D3FFF79EFF6E
:1014E8000028FBD101232B7070BD63685B79002B4A
:1014F80003D0236820009B6898471034EBE7C04668
:10150800FD25002090EB0100A0EB0100F7B50021BC
:101518000800FFF789FE041E2CD000261E4F1DF080
:10152800C3F91E4B1E4A1B581360002B06D01D4BD7
:101538001B68092B02DD1C4818F0E0FA0023009311
:10154800002C07D02000FFF70DFE041E02D1012752
:101558007F423E00FFF762FF0190002808D1009B00
:10156800124D002B13D110483A00330018F0E8FA56
:10157800019BE4E701277F423E00D0E72B689B6987
:10158800002B03D000222800110098471035084B83
:101598009D42F3D3E7E7C046670600000800000055
:1015A800441200204C1200203405002090EB01006A
:1015B800A0EB010013B516481AF093FC154B1B78E5
:1015C800002B0AD0EFF3108472B6FFF727FF002C28
:1015D80002D162B6BFF36F8F13BD0F4B1B68002B90
:1015E800FAD000280AD10022002300920193802219
:1015F80000230A48120219F087FAEDE70928EBD10F
:1016080006481CF0FDFF064818F078FAE4E7C046E3
:101618004C120020FD25002044120020300B002031
:101628003405002010B5064B04001B6898472100BC
:10163800A06004481AF09DFAFFF7BCFF10BDC04631
:10164800840100209C040020044B054A00209B1ABA
:10165800DB08994201D2C9008858704790EB010015
:10166800B8EA0100084B10B5C31A44681B110133CE
:10167800237143689A7101224368196043685A715B
:10168800FFF732FE10BDC04690EB0100F0B55E1CBE
:1016980085B0B50000902800072317309843033021
:1016A80080080F000192FFF793FE02AB04000322AB
:1016B800581D00211DF047F803AB1E70002C0BD0FD
:1016C800039B21002361002314312A1F0198C0586D
:1016D800C85004339A42F9D1E023BA015B001A409A
:1016E8006D02054B2A431A402000002300991AF086
:1016F80028FC05B0F0BDC046C0FF0F00F0B591B0A2
:1017080004AF3B600B035B0D0D0078607A613B61B1
:101718000C0D002B00D173E0BB60002604237E6211
:10172800BE62FE6202931833FB1801930A23182243
:10173800009302339B18DB193200B9687869FFF708
:1017480087F98023F8601B01984224D37B696C4693
:101758001A795B798AB01B0213437A699279120469
:101768001A437B69DB791B06134304AA9361294B4F
:101778002949D36180239B001384284B516113614D
:1017880092213300264810328901FFF7B7FFA5469A
:10179800BD460DB0F0BDFB6817345B055A0D3A61C4
:1017A800204A1B0B15401D43FB68E018072398438C
:1017B80003308008FFF70CFE041E15D00300103319
:1017C8007B62FB68FE62BB62042302931833FB183A
:1017D80001930A231821009302335B18124AB9684F
:1017E8007869DB19FFF734F93B690E4A5B0215404B
:1017F8001D432A0020003B6879681AF0A2FBC7E75E
:10180800200007231730984303308008FFF7E0FDD6
:101818000400E9E7FF070000980B0200040000013C
:1018280050EB0100FF01F0FF1DBF0100F0B587B0CC
:101838000E9F0400150002910393002F15D00F9BF3
:1018480010210593009300203B000D9AFEF724FF1A
:10185800802306001B01984208D30221174A184822
:10186800184B1AF08EFB07B0F0BD3E00072322008C
:101878000C9C1D401A40D2001734AD011543A01925
:101888007202154398430C9A0330120580081543D9
:10189800FFF79EFD041E09D0002F07D00F9B3100D3
:1018A80000930D9A3B001030FEF7F6FE2A00200048
:1018B800039B02991AF045FBD5E7C046D70B0200F7
:1018C80050EB0100FF0700004068002804D0044BDB
:1018D800C01AC00800B2704701204042FBE7C0466A
:1018E800B8EA01000EB417B5054C05AB04CB0100EE
:1018F8002000019300F0FCFC1EBC08BC03B0184794
:10190800E7BF010010B5CB0604D4890603D5034907
:10191800FFF7E8FF10BD0249FAE7C046100C0200C5
:101928000F0C0200F0B58FB0069315AB1B780700BB
:101938000C0005920493002B00D1B4E00225199BFA
:10194800199A1D4001231A400B92199A07331A401D
:101958000792199AF8331A40089200261AF0D8FA12
:101968000200B04204D038008D49FFF7BBFF0600E3
:10197800002D09D04423199A1A4235D12200380083
:101988008849FFF7AFFF36180B9B002B0AD0049A43
:10199800854B9200D258002A00D1844A38008449E5
:1019A800FFF7A0FF089B002B5AD0079B002B77D18D
:1019B8001C00059B002B05D01A0038007D49FFF755
:1019C80091FF0400169B7C48A419002B00D0BEE0B0
:1019D800189B002B74D1199BDB0700D5DAE038007F
:1019E8001999FFF78FFFBEE00020744B1D688542F0
:1019F800C9D0734B20001968FEF770FB2900FEF769
:101A0800A9FB0C00E12109010990FEF7A3FBFA20CC
:101A180080000A9160432900FEF79CFB0C000C90A3
:101A28003C210A98FEF75AFBE1210D90090109981B
:101A3800FEF754FB0990FA20800029006043FEF766
:101A48004DFB0C9B02903C210A980193FEF782FB08
:101A5800380000910D9B099A5A49FFF743FF92E716
:101A6800079B089C002B08D0049A574B920038001B
:101A78005649D258FFF736FF0400059B002B05D0C6
:101A88001A0038004B49FFF72DFF2418069B002B3E
:101A980098D01A0038004E49FFF724FF241891E720
:101AA80000230693E0E7069B4A48012B00D14248F1
:101AB800169B049C002B4AD1189B002B53D0002462
:101AC800189E102E00D9102638001999FFF71AFF12
:101AD8000025AC424CDC179B38001A783E49FFF7CA
:101AE80001FF012507231D4203D138003B49FFF7B9
:101AF800F9FEAE4242D9179B38005A5D3649FFF7C6
:101B0800F1FE0135102DEDD1002538003449FFF7DD
:101B1800E9FE2B00179AD25C1300203B5E2B00D9FC
:101B28002E2238002F49FFF7DDFE0135102D2AD06F
:101B380007231D4203D138002849FFF7D3FE2B00A5
:101B4800AE42E7D838002549FFF7CCFEEDE7169BF3
:101B58003A00254919F001FE189B002BB0D1049BCF
:101B6800002B00D037E738001AF02DFA0FB0F0BD7F
:101B780038001A49FFF7B6FE0135AAE738001B49B5
:101B8800FFF7B0FEBDE7179B9B191793189B9B1B8C
:101B98001893E2E73800054A0549FFF7A3FE1EE758
:101BA800170C02001B0C02006CEC0100120C020066
:101BB800BB130200400C0200E7BF010058120020CE
:101BC80054120020240C020080EC0100440C020096
:101BD8004A0C02000DC001004F0C0200570C020015
:101BE800590C02005B0C0200F9220000550C02009F
:101BF80073B5114A04000B000568914200D913001F
:101C0800052168460D4A19F04BF80600636828005C
:101C18000B220B495B681AF0C7F963683200280089
:101C280069465B681AF0C0F9636828001B220549F9
:101C38005B681AF0B9F973BD0F270000C3100200E2
:101C48007A0C02005E0C0200012310B500211C0072
:101C5800074A904207D8074A002900D10123136098
:101C6800054B186010BD210040085B00F1E7C04635
:101C780040420F00541200205812002070B50D0089
:101C880004004618B44201D1280070BD21780348E9
:101C9800013483685B689847F4E7C0468CE9010023
:101CA80010B5034819F0B8FD024819F0B5FD10BD8C
:101CB800C00C0200F50C020003000449103302783E
:101CC8008A5C027001309842F9D170472F0D0200EA
:101CD800F0B58DB001AC22000500244BC1CBC1C2C8
:101CE800C1CBC1C2C1CBC1C241CB41C2281E3BD06E
:101CF800081E39D028000D00020010350B784E78E8
:101D08001B0636043343CE7833438E7804313602CB
:101D1800334308C28D42F1D1182304229C46FF2781
:101D2800134E0321C3680A4216D16146CB41190EEE
:101D3800755C19003940715C2D060D43190C39404A
:101D48001B0A715C3B40F35C090429431B020B43EB
:101D58009108890061584B40016801324B4003618A
:101D680004302C2ADDD101200DB0F0BDA0EB01001C
:101D78002F0D0200F0B585B000AF0C1EB86036D04C
:101D88006E468AB06D4609686268A3682B620523AF
:101D98002048A9616861EA612B61A1212A001E48D7
:101DA8001032002389017A60F860FFF7A7FCB54676
:101DB800E168AD46226963692B6205231748A9616A
:101DC8006861EA612B61A12100237A68F8688901BA
:101DD800FFF794FCB546E3690121114AF8681AF047
:101DE800D0F8A36901210F4AF8681AF0CAF8BB684D
:101DF800012B07D1EFF305830B4A0748B968103B5D
:101E08001AF0BFF82100B86817F0C4FBBD4605B04A
:101E1800F0BDC0462F0E020080EB01005E0E0200EE
:101E28008D0E02009C0E0200CA0E020030BFFDE7B4
:101E3800F7B50A4B0A4D0600EF18CC1B2A00200004
:101E4800084901931CF076FC60190021019A1CF0E6
:101E58007AFC3800083CB4660830FEBD0400000077
:101E680000000000A0EB0100074A9368997B7F29D6
:101E780008D85269934205D08023044A5B0551680B
:101E88000B4353607047C046AC25002000ED00E0CE
:101E9800F0B53E4B8BB05B6800AF7B60DB05DB0DBC
:101EA80004003B6062B6BFF36F8F394E130EFF2BF1
:101EB80008D1F33B1340082B3DD101213000354AAE
:101EC8001AF058F800252C003B68032B39D1324A08
:101ED800012130001AF04EF8A369304A934202D328
:101EE8002F4A934205D32F4A934249D32E4A93420D
:101EF80046D2023B1A882D4B9A4241D123680121D0
:101F080030002B4A1AF03DF8266808232022F818DA
:101F180021001CF00FFC7B6A002D33D0DA0502D1BA
:101F2800244A13437B6208233000F918FFF722FF85
:101F3800BD460BB0F0BD01251207C5D50C00002524
:101F4800C2E7F822796852001B4B114200D01B4BA4
:101F58006A468AB07A606A4693613B681849103BC2
:101F6800D36180239B001384164B51611361912127
:101F78000023300010328901FFF7C0FB7B689D46C3
:101F88000026C2E75B0A5B02CCE7C04600ED00E032
:101F980080EB01000B0F0200360F0200A8000000C2
:101FA800BCE80100000000200000002002DF000063
:101FB8004D0F0200FF010000DD0E0200F20E0200CC
:101FC800690F0200040000010821024A53698B438B
:101FD8005361704700ED00E0EFF30880EFF30981EB
:101FE80001B57246FFF754FF01BDC046002080F3DB
:101FF8001488BFF36F8F16F045FD0A4880F30888F0
:1020080000F016F872B608480849401880F30988A5
:10201800EFF314800221084380F31488BFF36F8F15
:102028001AF092FA384500203834002000080000E1
:1020380072B60122064B5242191DCA67C0214900D7
:102048005A5062B6BFF34F8FBFF36F8F7047C046C9
:1020580000E100E010B50A4B9B6883420DD1EFF315
:102068000583002B09D08022064B520559680A4384
:102078005A605A6A04490A405A621CF016FA10BD9E
:10208800AC25002000ED00E0FF7FFFFF0B21084A90
:10209800494293681967D866802306495B054868F2
:1020A80003434B6062B6BFF36F8F9368186F704736
:1020B800AC25002000ED00E0EFF3108372B680211C
:1020C800084A090553699360074A5160996E074A9F
:1020D80011600021DA6ED9668A4202D162B6BFF376
:1020E8006F8F7047AC25002000ED00E088120020BB
:1020F80010498A6810481044EFF3098CF0C0434631
:102108004C4655465E466746F8C074467046FFF72B
:10211800D3FFA64607498A68074C10191030F8C83B
:102128009846A146AA46B346BC462438F0C88CF364
:1021380009887047AC250020300000000420714653
:10214800014202D0EFF3098001D1EFF308808169E1
:10215800023909780229FFD001B51AF0E2F901BD68
:1021680043B2000605D41F221A4001239340014AB6
:102178001360704700E100E043B2000609D41F2253
:102188001A4001239340034AD367BFF34F8FBFF32D
:102198006F8F704704E100E0054A43099B009B5894
:1021A8001F2210401E3A8240134018007047C04654
:1021B80000E100E030B5FF2503220B00290040B202
:1021C8000240D20091409B012B40C9439340002814
:1021D8000ADBC0240A4A800880008018A40002593B
:1021E8000A401343035130BD0F2210400838054AF6
:1021F800800880008018C26911401943C161F2E764
:1022080000E100E000ED00E010B5203A1360029B09
:1022180001245360039B06499360049BA143D36048
:1022280080235B04D361002391610265C36610BDFE
:10223800850E000070B5094B0E009860816E084B42
:10224800150019602C1C86F309880020054B984757
:10225800201C002100220023034C2047AC2500202D
:102268008812002067C50100850E00001022014B6E
:102278001A61704700ED00E0F0B5C0240022032683
:10228800FF25A40010002F003040C00087400549FA
:1022980093089B005B1819590132B94319511A2A3E
:1022A800F0D1F0BD00E100E010B5EFF30583054A79
:1022B800103BDB00D118496898588847FFF7D4FDD0
:1022C80010BDC046B4E9010010B5024B1B68984721
:1022D800002010BD8C120020034B044A1860022312
:1022E80091780B43937070478C1200209001002066
:1022F800F0B587B007000E001400002110226846D0
:102308001D001CF020FA6A4602239370054B2A0030
:102318002100684601930497059618F0EFFC07B072
:10232800F0BDC04695C50100072310B50449054A0C
:1023380099430548521A19F0BAF9002010BDC04651
:102348004B560020008000209012002070B5416993
:102358000400867A0A4D00290BD0437ADB0706D49D
:102368002C237343EB185B6A1B689B689847002310
:1023780063612C2373432100E8181BF07CFE70BDB9
:102388007C0500202C234343014818187047C04699
:102398007C0500202C2210B5817A064B4A439B18F5
:1023A8009A6A197F03231B31801A9943FDF796FE19
:1023B80010BDC0467C0500202C2270B5847A064BDF
:1023C80062439B185B6A9C685A680C601568FFF743
:1023D800E1FF6043281870BD7C050020F0B587B088
:1023E800050002A814001F0005911CF0B7F8029A16
:1023F800039B00920193EFF3108672B66B8B002B50
:1024080044D02A8B9A4227D900220023280017F0AB
:1024180047FB041E20D0002E02D162B6BFF36F8F97
:10242800059B002B4ED0009A019B02A81CF0B6F821
:102438002C20A57A2C4968430918496A20000968A4
:10244800029A0D68039B05A9A847606100283AD144
:102458002000FFF77BFF31E0698B4B1E6B83002E5A
:1024680002D162B6BFF36F8F03232A7FAC6A1B3297
:102478009A432B8B5B1A5343E4181B4B1B4AEB1AEA
:102488009B105343A3722B7FE372C9E7002E02D13E
:1024980062B6BFF36F8F23003B4308D01CF004FAE9
:1024A800134A144B12589A4201D1002427002200E3
:1024B8003B00280017F0F4FA041EB1D100242000D4
:1024C80007B0F0BD63610123002520002381059B2F
:1024D80029006382E27A656018301CF034F9636978
:1024E8002582E360EBE7C0467C050020A38B2EBA6B
:1024F800080000001011002070B52C24002800D11D
:1025080070BD037A4568013BDBB20372002BF7D13B
:10251800827AC36062434360054B9B181B6A002B99
:1025280002D098472800E9E7FFF710FFFAE7C0460E
:102538007C05002010B5022805D90123024A02387B
:1025480000011343984710BD40EC010010B5054841
:102558001BF011FC002801D0002010BD13204042C0
:10256800FBE7C04664E901000300F0B5402900D943
:1025780040210B4A0F2710000A4D5E18B34203D1C1
:10258800002349004354F0BD1C7824092C5D1470C5
:102598001C7801333C402C5D54700232EEE7C04693
:1025A8001D260020F60F020030B503788BB004001A
:1025B80007AD032B23D81800FDF77CFD021B1D1F58
:1025C80012492800FDF7B2FEA379059561781048F5
:1025D8000491A1780F4A0391E17802912179019140
:1025E8006179040000911E2118F05AFB20000BB0FD
:1025F80030BD0949E5E70949E3E70949E1E70A2167
:102608002800084A18F04CFBDEE7C046B10F02006C
:10261800FF250020D30F0200B80F0200BF0F0200F1
:10262800C90F0200472002007FB50024094D0A4B5C
:102638002800029303941BF0F7FDA32202AE2800A2
:102648000A2306490096D20017F046FC200004B081
:1026580070BDC046680B002007100200B02900209A
:1026680010B5034C0100200017F07AFC10BDC046DD
:10267800680B002070B5037805000C00012B0DD005
:10268800022B1AD0002B08D1112220000E491CF071
:1026980051F86B8863731B0AA37370BD1122200065
:1026A80009491CF047F86B689AB263731B0C120A4D
:1026B800E3731B0AA2732374EFE7010011222000C1
:1026C8001CF038F8E9E7C0461010020070B50500A4
:1026D800054819F06CFF041E04D001210C3019F0D4
:1026E800C8FF2576200070BD5806002010B50F28B9
:1026F8000DD80D280DD90C4819F059FF041E10D01B
:1027080001210C3019F0B5FF0123237609E01328C5
:10271800F1D0002901D00548EEE70120FFF7D6FFE8
:102728000400200010BDC04684060020D405002007
:1027380010B5C36802211B78024A03481AF0CEF884
:1027480010BDC0463010020010EB010070B5C6681D
:10275800B57873782D021D433378002B0FD10F21E4
:10276800280002F08FFEF278041E09D108490B8870
:10277800002B04D1074B2B430B80074B1A7070BDFD
:102788004272012102F07CFD200002F05BFDF6E7B9
:10279800E425002000F0FFFF9E26002070B5C368E6
:1027A8001E78002E0FD19D785A782D0215430F21DF
:1027B800280002F067FE041E06D12B000121114AF1
:1027C80011481AF08BF870BD310002F059FDA57858
:1027D800012D03D0200002F035FDF4E7201D1BF089
:1027E80055FF2842F6D00321200002F049FD0320BE
:1027F8001AF04BF9031EEDD00221044A02481AF0E0
:102808006DF8E7E75810020010EB01007E10020097
:1028180010B501210C3019F061FF01210378024A3B
:1028280002481AF05BF810BDA410020010EB01007A
:10283800084B010010B5180019F0BFFE064817F044
:1028480041FB031E04DA0121044A05481AF046F840
:1028580010BDC0464C010020B0010020C610020087
:1028680010EB010010B5074C01000622207802F099
:1028780099FF002804D105220349207802F092FF2D
:1028880010BDC0466F000020970F020010B501214F
:10289800024A03481AF01EF810BDC046E3100200B1
:1028A80010EB01000B00B0B50D8A00AF0400290041
:1028B800D868FFF759FE8AB06A46B221074BD5613E
:1028C8005361074B10629384064B94611361064869
:1028D800103289011AF00FF8BD46B0BDFD10020094
:1028E800020400000500000110EB010070B5C56886
:1028F8000121AE786B7836021E43300002F0C2FD2B
:10290800041E06D1330001210A4A0B4819F0E6FFDC
:1029180070BD2B78002B04D10822E91C95301BF0E0
:1029280009FF8021201DC90119F0DCFF200002F0F9
:1029380089FCEDE71F11020010EB010037B5040018
:102948000800DB00D3189A4201D15F200FE0110084
:1029580015780831A54210D1038A5178994208D9CF
:1029680007480121074A009419F013FB162040423A
:1029780002E05368984700203EBD0A00E3E7C046DE
:1029880010EB01004311020073B53E4819F028FE10
:10299800041E4FD0017E01294DD0032900D06DE0DF
:1029A800038A032B05D8384A3848023919F096FFAC
:1029B80019E004210C3019F091FEC178837845782C
:1029C8000902194303782D021D43FF232805637666
:1029D800238A000DA083994209D02D4A00912B48E3
:1029E800012119F0D6FA2000FFF786FD14E00F2127
:1029F80002F048FD061E04D1A38B264A2348012174
:102A0800D4E702F07FFD210060762A0B300002F047
:102A18000DFB300002F016FC1F4B1B6D002B09D07C
:102A28001E4817F04FFA031E04DA01211C4A174802
:102A380019F054FF73BD038A012B02D8194A1348B1
:102A4800B4E702210C3019F049FE0500007819F0AE
:102A58002FFF80070BD4144A14491548154B18F05A
:102A6800E6FE62B6BFF36F8F0323181C02DF042350
:102A78002100114A287819F047FFB4E70B000F4AE4
:102A88000248BCE74C0100206511020010EB010070
:102A980086110200AA110200FC000020B0010020EB
:102AA800C6100200CC110200E81102001C1202003C
:102AB8004A120200A80B000064ED01006712020030
:102AC80010B5012104000C3019F008FE062321007E
:102AD800024A007819F018FF10BDC04684ED0100C5
:102AE800F8B50121060000AF0C3019F0F7FD0578A4
:102AF8000023310028000F4AFFF720FF5F3017D16D
:102B0800348AF0682100FFF72FFD6E468AB06A46C6
:102B1800B221094B10625361084B95619384084BAD
:102B2800D461136107481032890119F0E4FEB546F3
:102B3800BD46F8BDB4ED01007B120200020400009E
:102B48000500000110EB0100F0B585B00700160084
:102B58000291404B0021180003931BF0A5FD041EB1
:102B680007D13B0001213C4A3C4819F0B7FE05B0AB
:102B7800F0BDFFF70FFC0C235843394D2818438844
:102B8800BB4217D02000FFF705FC0C235843281838
:102B9800438801210093334A3B00304819F0F9F982
:102BA800210003981BF080FD041EE0D02000FFF7F1
:102BB800A3FCDCE7A6420ED02000270019F0F2FCA7
:102BC80001210C373800217619F053FD3800328A7C
:102BD800F16819F061FD2000FFF7DCFB0C2670435B
:102BE80028184368002B16D0029B002B13D1200015
:102BF800FFF7D0FB4643AE1972681F2601215368C0
:102C08001068127A1E40B1405B09002A1BD09B0055
:102C1800C01819F067FE2000FFF7BCFB0C267043B4
:102C280028188368002BC1D02000FFF7B3FB70433E
:102C3800029B2B542000FFF7ADFB4643AD19A86853
:102C480016F05CFFB2E79B00C943C01819F058FEA4
:102C5800E1E7C04648010020AD12020010EB010078
:102C68009C120020D5120200F7B5C36800AF1D788A
:102C78007B60018AAB00013300268B4219D96C4670
:102C88008AB06A46D36111620523A1212C48956157
:102C9800506113612B481032890119F02CFEA546AA
:102CA800BD46F7BD2B000121274A264819F016FE1C
:102CB80001367B681B789E42F2DA7A68B300D31833
:102CC8009A785D7812021543DA781B790F211B0276
:102CD800134328003B6002F0D5FB041EE2D03D6898
:102CE800013D1A4BADB29D420CD0200002F046F9CE
:102CF80016F004FF6369002B08D10121144A11481A
:102D080019F0E8FD200002F09DFAD1E71A68A169E0
:102D180062618B4200D1A26100221A60226A002AF5
:102D28000BD12362E36120000121C0301BF0A1FC1C
:102D38000021200002F02EF9D2E713602362F2E7A7
:102D48000813020010EB010032130200FFFF00001D
:102D58004E130200F7B5C5680121AE786B783602CC
:102D68001E43300002F08EFB041E06D13300012101
:102D78002D4A2E4819F0B2FDF7BD2B78061D1A2BE7
:102D88001AD1C378012B34D180277F013900300054
:102D980019F0A8FD38420FD1230088331B68694613
:102DA8000093230090331B682000019303F016FA68
:102DB800200002F047FADFE72B78002B19D12B7996
:102DC800EA781B021343220086321380AB796A79B2
:102DD8001B02134322008C3213802B7AEA791B02E0
:102DE800134322008E3213803000114919F088FDF8
:102DF80015E030001BF04AFC4005F5D52B78202B58
:102E0800F2D1220094321378002BEDD0013B1370DD
:102E18002000A02200239202403017F0C9F82000B9
:102E280002F0B8FBC4E7C0461F11020010EB010016
:102E3800FFFBFFFF10B50C0002A909782260636050
:102E48002172FFF7A7FA0C224243024B9B185C60E1
:102E580010BDC0469C120020F0B585B0019001223B
:102E68005242D3171848039119F0A1FB041E27D02A
:102E7800030000270C3301211800029319F0F9FB15
:102E880020002776FFF786FA0C2670430F4D019B2A
:102E9800281843802000FFF77DFA704328188760C0
:102EA8002000FFF777FA464303210298AD196F60B7
:102EB80019F0EBFB019B03701B0A4370039B8370A3
:102EC800200005B0F0BDC0462C0600209C12002052
:102ED80030B502884388010000209A4218D8052A94
:102EE80016D9C8221201934212D8FA248A8864009B
:102EF800A2420DD2C988074D0C000A3CA4B2AC42CC
:102F080006D8013292B2534389008B429B41584202
:102F180030BDC046760C000030B591B001AD04005C
:102F28003C22280004491BF005FC04480E2C01D85B
:102F3800A400605911B030BDCCEB0100651302004C
:102F480010B5034B0100186F83689B68984710BD44
:102F5800FC000020F7B505000C350400280019F026
:102F6800D8FB0190278A012F09D83B000121174A75
:102F7800174819F0B3FC2000FFF7BEFA24E002213D
:102F8800280019F0ABFB0600007819F091FC050049
:102F9800C3070BD40F4A10491048114B18F047FCCF
:102FA80062B6BFF36F8F0323181C02DF05232100CD
:102FB8000C4A307819F0A8FCAD07DCD56B469A8826
:102FC800636927829B18E360F7BDC046CC110200F5
:102FD80010EB0100E81102006D1302004A12020012
:102FE800E40F00003CED010070B50C0017F04AFA40
:102FF800267E012E05D0032E14D12000FFF718FCE1
:103008000BE0E368187819F053FC0500304202D051
:103018002000FFF79FFFAD07EFD4002417F042FA16
:10302800200070BD33000121044A054819F056FC00
:1030380020001624FFF760FA6442EFE786130200C7
:1030480010EB0100F7B5042100AF404819F04AFC25
:1030580001F02EFD3E4C3F4DE379012B00D93E4D4A
:103068002000FFF7A1FA6E468AB06A46A3213B4BBF
:10307800956153613A4B3B4D13623B4BD0611361F1
:1030880028001032890119F036FCB5460126E3798B
:103098009E4240DB230070331B786E4618007B602D
:1030A800FFF73AFF230072331988230076331B8811
:1030B8008CB03B606A462D4B116253617B68D3210B
:1030C800D3613B689061536280239B001385284B32
:1030D800280013618901103219F00DFC2200B54651
:1030E8007132167874343000FFF716FF8AB02388DF
:1030F8006A46136280231F499B005161B321938460
:103108001D4B9061D661280013618901103219F0B6
:10311800F2FBBD46F7BD072070432018FFF744FABD
:103128006B468AB06A467B609321144B9661536163
:10313800134BD0611384134B28001361890110329B
:1031480019F0D9FB7B6801369D46A0E7D400002022
:1031580000000020110C02009A1302009E130200C6
:103168000002010310EB010004000002BE1302007C
:1031780006000001FC13020005000001AD13020067
:10318800010300000400000110B503481BF07EFA9B
:103198004007C00F10BDC046D4000020004870474B
:1031A8002314020010B5024816F08CFE10BDC0466C
:1031B800A001002070B505000C1E03D1FFF74CFEDE
:1031C800041E1AD00E4B9D420FD12000FFF7B8FE07
:1031D800051E08D00B482B0001210B4A19F07EFB75
:1031E8002000FFF789F9280070BD210007481AF070
:1031F80039FF0025FFF7D6FFF5E769256D42F2E7AD
:10320800350C000010EB01003114020054010020BD
:1032180070B504000E000B480321FFF71DFE051EC4
:1032280002D1FFF733FB70BD03210C3019F02DFAE2
:103238000470240A4470867029000248FFF7BAFF18
:10324800F1E7C04621200000F7B5C3685D781A7819
:103258002D021543DA78997812020A4369460A80E2
:103268005A79197912020A4369464A80DA799979B2
:1032780012020A4369468A801A7A5B7A28001B027E
:103288001343CB80012102F0FDF8061E0AD101216B
:1032980023482B00234A19F021FB02212800FFF7BD
:1032A800B7FFF7BD694602F0C7F9002807D11E210C
:1032B8002800FFF7ADFF300001F0C4FFF1E70E2151
:1032C8001948FFF7C9FD071EF5D00E210C3019F07B
:1032D800DCF90400042200210A301BF034FA6B46A2
:1032E80025702D0A65701B783900A3706B465B78D2
:1032F8000D48E3706B469B7823716B46DB786371EE
:103308006B461B79A3716B465B79E3716B469B79BE
:1033180023726B46DB796372FFF74CFFCBE7C0463D
:1033280010EB01001F11020020200000F8B5020078
:103338000B002B492B4E896D002901D10020F8BDC7
:10334800294D280016F0FCFB0028F7D100220023A5
:10335800264816F0A5FB041E0BD1254A2549264808
:10336800264B18F064FA62B6BFF36F8F0323181C5C
:1033780002DF3700FC37FB6C002B09D00121204A03
:10338800204819F0A7FAF86CFFF7B6F80023FB6499
:10339800200019F039F9FC36F0642000FFF7D0FD61
:1033A800031E1AD00121184A164819F097FA280066
:1033B80016F0A4FB2000FEF7EDFF0C224243134B4E
:1033C8009B185888002803D022001F21FFF7BCFB58
:1033D8002000FFF791F8FFF7E5FE0120AFE7C046B0
:1033E800FC000020000000203001002054010020D3
:1033F800E8110200241002004A120200B70B000074
:103408005314020010EB0100311402009C1200203A
:10341800F0B589B000AF0C0016007860002905D11E
:10342800FFF71AFD041E08D169208CE0887AFEF7A0
:10343800A9FF4F4B834200D096E0082500210122C6
:1034480078191AF026FE2000FEF7A4FF0C2242434A
:10345800484B20009B187A199A6019F0D5F8464B0A
:10346800010018001AF0FEFDFFF79CFE1BF01CFA85
:10347800424A434B12589A421DD13F481AF003FE64
:103488000500A0200021C002FFF750FF002810D13E
:10349800D4233C4A5B003C493C4818F0C8F93C48F6
:1034A800796818F0C4F962B6BFF36F8F0323181C4C
:1034B80002DFAC42E1D10821A0220023D202781811
:1034C80016F03EFB051E11D0D7232E4A5B0031496A
:1034D8002E4818F0ACF92A002F48796818F0A7F997
:1034E80062B6BFF36F8F0323181C02DF2000FEF7BC
:1034F80051FF0C2242431F4BD55C002D29D06E464C
:103508008AB06A46B221254BD56153617B6824484D
:103518009361244B10321361234B89019382234B0F
:10352800136019F0E8F92000B546FEF7E5FF28001A
:10353800093809280BD8FCF7BDFD190A0A08050A3D
:103548000A0A0A170C20404207E00D20FBE7052075
:10355800F9E7002E04D034600020BD4609B0F0BD64
:103568002000FEF7C9FFF7E71620ECE76F20EAE72F
:103578002C0600209C1200205401002008000000A6
:1035880010110020E81102006E1402004A12020015
:1035980076140200961402009F140200E41402003C
:1035A80010EB0100110C02000204000005000001EC
:1035B8000C23F0B585B000AF0021A548FA18FFF735
:1035C80027FF041E6ED1FC68E3681B78002B0BD123
:1035D80001F06EFA9F4D28001BF058F801000923EE
:1035E800280019401BF054F82000FEF785FF0C2333
:1035F80000219948FA18FFF70BFF041E52D1FE6804
:103608000822F16895480131954D1BF093F8300078
:10361800FEF772FF0C2321009248FA18FFF7F8FE14
:10362800041E3FD12A00F8687032C36859781170B7
:10363800DA78997812020A43290072310A802A003E
:103648001979713211701A7AD97912020A4329004C
:1036580074310A805A799B791B0213432A00763207
:103668001380FEF749FF0C2321007F48FA18FFF763
:10367800CFFE041E16D12800FE684022F168803073
:1036880001311BF057F83000FEF736FF2B004022BF
:103698007C331B78134209D10121744A744819F00C
:1036A80019F9133C2000BD4605B0F0BD0C232100DC
:1036B8007048FA18FFF7ACFE041EF3D12800FE6824
:1036C8000822F168D83001311BF034F83000FEF7D9
:1036D80013FF0C2321006848FA18FFF799FE041E0F
:1036E800E0D1FC68E268937851781B020B430AD05A
:1036F800D178002907D02900FE31CB80D1785F48E6
:103708000A001AF0C6FC2000FEF7F6FE2B001F2266
:10371800FE335A842B007C331A78202316001E406F
:103728001A4214D102215648FFF796FB041E00D115
:1037380082E002210C3018F0A8FF01232100037059
:10374800467032004E48FFF763FE041EAAD12B00D4
:103758009C331B781B0722D50C2300214948FA18F3
:10376800FFF756FE041E9DD1F868C3689A78597809
:1037780012020A43D9789C79090411431A79240260
:1037880012060A4359790C43D9791B7A0904214353
:103798001B060B432900E0310CC1FEF7ADFE0821E2
:1037A8003948FFF759FB041E46D008210C3018F0A1
:1037B8006CFF2B00D8331A782F23920700D4203BB4
:1037C80000222100037042708270C270027142713F
:1037D8008271C2712C48FFF71BFE041E00D061E7FE
:1037E8002E007C352B78FE36F1889B0626D40029DE
:1037F8001CD10C232548FA18FFF70AFE041E00D036
:1038080050E7F388FC68002B0DD1E2689378517873
:103818001B020B43F38051791379090219431748A6
:103828000A001AF036FC2000FEF766FE0821184848
:10383800FFF712FB041E2FD1692407E00029F5D1F8
:10384800144A0B48013119F045F80524644229E768
:10385800030C0000D40000200310000078000020B2
:1038680000000020011000000210000003150200F3
:1038780010EB0100032000000220000008010020D6
:103888006D0C00001C200000012000000510000045
:10389800010C00002715020008210C3018F0F5FE75
:1038A800102300220226037078334370683B2100FE
:1038B8008270C670027142718271C3716048FFF7ED
:1038C800A7FD041E00D0EDE60C230100FA185D48A0
:1038D800FFF79EFD5C4D5D4A002800D096E0FB682E
:1038E8005B49DC68A37862781B021343032B02D878
:1038F800584A990089586E468AB06A46D36180232F
:10390800916193219B0013845348544B5061136178
:1039180089011032280018F0EEFF2379E2781B02A3
:103928001343A278617812020A43B5464849022A2D
:1039380004D1052B02D84A4A990089586E468AB0A4
:103948006A46D3618023916193219B004548138483
:10395800424B5061136128001032890118F0CBFFE7
:103968006079B5463A4D032802D83F4B8200D558B6
:10397800217AE37909021943A37A627A1B02134375
:10398800E27AA67912041A43237B6C461B0613437A
:103998008CB06A467B60354B516253617B68F3217A
:1039A800936280239B0095619385274D304BD061AE
:1039B8001361166289011032280018F09CFFA54691
:1039C800F868FEF799FD0C230021FA182948FFF73B
:1039D8001FFD294A7860002818D1FE68274CF16835
:1039E800274B0222013120003B601AF0A3FE300071
:1039F800FEF782FD23785B070CD50C2379682148F4
:103A0800FA18FFF705FD002811D01F4A02212800E7
:103A180018F060FF00F030FE041E00D042E602F00D
:103A280065F9041E00D03DE6FFF70CFB3AE6F8689E
:103A3800C3685A783B68C0331A70FEF75DFDE9E742
:103A4800010C000001FC000010EB01004A15020007
:103A5800651302002CED01006E1502000400000140
:103A680014ED01008715020004ED01009F15020006
:103A78000700000102FC0000CC150200C100002074
:103A88000000002003FC0000F515020010B5FFF748
:103A98008FFD034B1B68002B00D0984710BDC04614
:103AA800B4120020F8B5204F0500386F1AF063F9FA
:103AB800002807D101211D4A1D4818F00BFF1324C7
:103AC800644223E003211B4C4942200018F018FFF0
:103AD8000121200018F006FF0126304222D1164BA2
:103AE8001D601648320031001AF0D3FA14481AF053
:103AF80093FA386F134983681B689847041E07D0E8
:103B080023003100104A0A4818F0E8FE2000F8BDEA
:103B1800002D03D1FFF74CFD0400F7E70B4816F022
:103B2800D1F9F3E77824CBE7FC0000201E16020049
:103B380010EB0100D4000020B41200203001002056
:103B480054010020F12F000036160200C4000020A6
:103B5800F7B5124B05001B780C007F2B1BD9002CE6
:103B680001D12000FEBD2600082C00D9082600211E
:103B78000B4801AAFFF74CFC0028F3D1019F320043
:103B8800F968280001311AF0D5FD3800FEF7B4FCB9
:103B9800AD19A41BE3E786204042E3E79B00002021
:103BA800182000000B23F0B587B06B4406001900FD
:103BB800002000F09BFC051E44D119212448FFF782
:103BC8004BF9071E41D019210C3018F05EFD19225F
:103BD800290004001AF0B7FD6B463100DB7A70311A
:103BE8002373601D18F082FE1A4A3800938903A9CE
:103BF80023701B0A6370D389174AA3701B0AE370EA
:103C0800330088331B8863731B0AA37333008A331A
:103C18001B88E3731B0A237433008C331B888E368E
:103C280063741B0AA3743388E3741B0A2375012386
:103C380000930733FFF7FEF82A0039000448FFF71E
:103C4800E7FB0500280007B0F0BD69256D42F9E7DC
:103C58000D20000000000020D4000020F7B505006A
:103C680000AF3C281AD100F06DFD81211030494287
:103C780018F046FE0020FEF7F5FD041E06D10121CE
:103C8800324A334818F026FEBD46F7BD457200217A
:103C980001F0F6FA200001F0D5FAF5E7022840D144
:103CA80000210200080001F07DFD041E0FD1012152
:103CB800284A274818F00EFE032018F0E6FE031ED7
:103CC800E2D00221244A224818F008FEDCE704303A
:103CD8001AF0DCFC01260321304210D120004030CC
:103CE8001AF0B4FA0C2302001A407A6018420DD177
:103CF80029001A4A164818F0EDFD79686572200007
:103D080001F0BEFA200001F09DFAD5E72000FFF788
:103D180049FF0028F6D03100114A0D4818F0DAFDA5
:103D2800F0E76C468AB06A4692210E4B9061536167
:103D38000D4B0748D3610D4B103213820C4B890190
:103D4800136018F0D8FDA5469EE7C046521602003B
:103D580010EB0100731602007E100200911602009B
:103D6800B7160200D3160200110C0200010300006E
:103D78000400000170B50A4D86B000212800FFF745
:103D88006BF800260400082303A9064A0096FFF7EB
:103D980051F8320021002800FFF73AFB06B070BD49
:103DA8000E200000D400002070B504000E000B485F
:103DB8000321FFF751F8051E0DD003210C3018F030
:103DC80064FC0470240A44708670002229000348A9
:103DD800FFF71EFB70BD69204042FBE706040000A8
:103DE800F0B58378427889B01B0200AF13437B603B
:103DF800F02379681B020B430021794A05001088DB
:103E0800F960984203D1774B11801B78FB60EB78FF
:103E18000024012B01D1744B1C782E1D300018F0A2
:103E2800EFFC3100002800D1A6E0102208239B18DF
:103E3800D81918F0DBFC11232900F81806221131D3
:103E48001AF078FC01233B74E878002800D0A2E03F
:103E5800102108235B180222D91901F0A3FCEB7882
:103E68000400012B0AD100F06DFC8121B8604942A1
:103E7800103018F045FDB86818F002FEEB78002BFA
:103E880003D15A485A4918F03BFD002C00D184E070
:103E9800AB786A781B021343238010220823200082
:103EA8009B18D919703018F021FD2B7EEA7D1B0272
:103EB8001343220086321380AB7E6A7E1B021343B3
:103EC80022008C3213802B7FEA7E1B0213432200D0
:103ED8008E3213800022EB786272E370012B19D1C5
:103EE80020000F33F918773018F000FD00F02AFC95
:103EF80007212000237A3F4D59437E30491918F095
:103F0800F5FC3F21E0356A682B680A40134301D06D
:103F180000F042FCE378002B0ED120001033F91892
:103F28007E3018F0E3FC07212000237A77305943CC
:103F3800304BC91818F0DAFC0721200001F0A0F96D
:103F4800FB68002B04D001212000637201F098F96E
:103F5800200001F011FB200001F074F9E378002B38
:103F680034D1032018F091FD031E2FD00221224ADC
:103F7800224818F0B3FC29E0200018F035FD102481
:103F880008231B190100D81918F0B0FC31003819A2
:103F980018F0ACFC58E701281BD03000FEF704FBF2
:103FA8006C4688B06A46164BE221536180239B0019
:103FB8009383144B9061136110484901103218F033
:103FC8009AFC1321A5467868FFF7EEFEBD4609B0B6
:103FD800F0BD102208239B18D819FEF743FC3EE7D2
:103FE800E42500209E2600206F000020D400002039
:103FF800FFFEFFFF000000207E10020010EB010012
:10400800EF1602000300000110B5C16888B00878F7
:10401800002803D0FFF722FE08B010BD6B461870C9
:104028008B784A781B0213436A4653701B0A9370B5
:104038006A46CB7801A8D3700B7BCA7A1B0213435C
:1040480017226A4413701B0A53708B7B4A7B1B022E
:10405800134319226A4413701B0A53700B7CCA7BE2
:104068001B0213431B226A4413701B0A53706A46CF
:104078004B7C0431537718F039FC0B20074C06228F
:10408800210068441AF056FB1120062221006844DA
:104098001AF050FB6846FFF7A3FEBDE7AB0F02001E
:1040A80070B5022105000B48FEF7D6FE041E0DD0A0
:1040B80002210C3018F0E9FA2B88002203701B0A41
:1040C800437021000348FFF7A3F970BD69204042FF
:1040D800FBE7C0461620000070B5042104000C3030
:1040E80018F0FCFA02008178C0785578000208437D
:1040F80003D011782200FEF727FD002D04D00348D5
:1041080015F0FCFCFFF74EF870BDC04630010020EA
:10411800B0B50321040000AF0C3018F0DFFA437883
:104128000578807800021843E3681978124B9842A2
:1041380014D16C468AB06A46916192210F4B10489F
:104148005361104B1032D3600F4B890113820F4B10
:10415800136018F0D0FBA546BD46B0BD002802D0BC
:104168002200FEF7F1FC002DF6D0094815F0C6FC38
:10417800FFF718F8F0E7C046350C00000B170200EF
:1041880010EB0100110C0200010300000400000103
:104198003001002070B501225242D3170E000021D1
:1041A8000500FEF7A3FA041E0BD11323094A0A4996
:1041B8000A4817F03CFB62B6BFF36F8F0323181C45
:1041C80002DF200002210C3018F05FFA05704670FB
:1041D800200070BD4A180200241002004A12020092
:1041E800F7B5002407270B4D0190EE79E3B29E4204
:1041F80002D80220404209E0390061430198691859
:1042080018F0D9FB631C002801D02000FEBD1C005B
:10421800ECE7C0460000002070B5184E06223100B9
:1042280005001AF098FA002823D006211448FEF752
:1042380013FE041E1FD0062229000C3018F02CFA99
:10424800210000220E48FFF7E3F8041E09D00300FE
:104258000D3304D102210B4A0B4818F0B4FB20009F
:1042680070BD0622290030001AF064FA0122074BBB
:104278001A700024F3E769246442F0E7690000201B
:10428800052000008018020018EB010068000020DB
:1042980073B504000D1E0ED02800134918F08BFBCF
:1042A800002808D1072229005443104820181AF082
:1042B80041FA002076BD684618F088FA0028F9D13E
:1042C8006846FFF78DFF0028F5DA07267443074B89
:1042D8003200E418694620001AF02CFA002DE8D0C4
:1042E800320021002800E2E79E0F020000000020B3
:1042F80070B50400002918D1002819D01E4918F0FB
:104308005AFB002814D12000FFF76AFF00282FDA93
:104318002378012B04D13F22A3799343C02B07D0E4
:104328000121164A164818F04EFB162040421AE0A2
:10433800144DEB79012B1DD013481AF0A7F9C007CB
:1043480007D4002CF1D020000B4918F034FB0028CA
:10435800EBD1EE792100731C3000EB71FFF798FF69
:10436800002801D1300070BDEB79013BEB71FAE711
:104378007820DBE70C20D9E79E0F02008F18020097
:1043880018EB010000000020D4000020F7B5041E3F
:10439800174A07D00021174801AAFFF739F8061E67
:1043A80006D0154A0221154818F00DFB0020FEBD65
:1043B800019F0622FD681249013528001AF0CBF941
:1043C800002806D0062228000E491AF0C4F9002851
:1043D80003D13800FEF790F8E8E706222900601CB0
:1043E8001AF0A8F938002670FEF786F80120DEE7F3
:1043F800BD18020009100000D618020018EB0100D1
:10440800AB0F0200A50F020007B56846FFF7BEFF15
:10441800044A0300D0710020834202D06946FFF7A6
:1044280037FF0EBD00000020F0B52A4D89B0EC79A9
:10443800002C16D12B00C2331A78012317001F4015
:104448001A4214D1244A0221244818F0BCFA002741
:10445800EF7116260127EB799C4224D30020834272
:1044680003D100210800FFF743FF09B0F0BD6A46F9
:1044780021001B48FEF7CCFF002801D0194AE2E7CB
:10448800009EF1684B78002B04D13000FEF734F819
:10449800154AD8E71622023102A81AF04BF9300063
:1044A800FEF72AF8D4E7310020236143C9186B4688
:1044B80069441839581C06221AF03CF96B466946BB
:1044C80020001F70FFF7E4FE0028CED10134E4B2CB
:1044D800C1E7C04600000020F418020018EB0100F4
:1044E80009FC0000201902004019020070B50C1EDA
:1044F8000DD0084D2B78012B03D000202B7823708A
:1045080070BD0548FFF788FE0028F6D0F8E71620AA
:104518004042F5E7000000200100002070B50600C9
:104528000D1E1CD00F4B1B780B7018F050FA00288A
:1045380002D00024200070BD18F067FA041E0BD0CA
:10454800002EF7D118F043FA0028F3D002212300F7
:10455800054A064817F015FD01232B70E9E71624D4
:104568006442E7E7000000206919020018EB010027
:10457800F7B504000E001D00009200280BD0002B98
:1045880009D002780B0310D5760707D50121364AE2
:10459800364818F018FA1624644204E018F04BFA6A
:1045A8000123041E46D02000FEBD0127394230D029
:1045B800009B2F4F002B13D08B060AD4072353439D
:1045C800FB5C012B13D02B70B60620D502221343B7
:1045D8000BE03B00D8331B785B06EFD48624DBE77F
:1045E80007235343FB5C012B01D02B700FE00723FB
:1045F8005343591C20007918019318F0FAF9041E46
:10460800D1D1019B009AFB5C2B70002ADCD10024DD
:10461800C9E70423194000911E420DD007265643CE
:10462800134FF35D012BE0D1711CC91918F0E1F9A2
:104638000400F35D2B70B6E70E481AF027F88011D6
:1046480038420BD0009800F04BFA200018F0F3F92C
:104658002F700400380000F043FAA4E7200018F097
:10466800EAF92F7004009EE79F19020018EB010079
:1046780000000020D400002070B50F4DEB79002B0E
:1046880002D00024200070BDFFF7BEFE041E05D036
:104698000A4A01210A4818F096F9F3E7EB79002B4A
:1046A800EFD1FFF7C1FE041EF2D10648FFF7B4FDB3
:1046B800041EE7D0044AECE700000020BE190200FF
:1046C80018EB010001000020DD19020010B50722D7
:1046D800034909301AF03FF8431E9841C0B210BD93
:1046E8009E0F0200F8B5154B067804000D001E70E9
:1046F800FFF7ECFF002809D11149300000F0D6FF80
:104708000521041E11D10C20404213E0270009376F
:104718003900300001F00CF800280CD1390020785D
:1047280000F0C4FF0621041EEDD0200000F0A8FD13
:1047380000202C60F8BD1620E6E7C0466F00002078
:10474800970F0200004870471800002070B5050058
:104758000E001048012186B0FEF77EFB041E15D01E
:1047680001210C30002E00D1310017F09FFF2A00E4
:104778002000103203A907230096FEF75BFB0022F6
:1047880021000448FEF744FE06B070BD692040428F
:10479800FAE7C0460A200000F0B5324C85B0200088
:1047A80019F074FF012640043AD5200019F06EFF75
:1047B800C011304234D1200019F068FF8012304215
:1047C8002ED0294F03A93800FFF78CFF002827D1E6
:1047D8003800FFF77BFF0190200019F057FF3500E4
:1047E80080138543200019F051FF8012B5403042F4
:1047F80000D03543200019F049FF800401D5042377
:104808001D4302AB29003800019A0333FFF7B0FEBD
:10481800051E07D001212B00144A154817F0B1FBDB
:1048280005B0F0BD01213800FFF790FF039E002876
:1048380003D1300000F006FDF2E72900300000F057
:104848001FFD0C49200018F017F90500300000F092
:10485800F9FC8021C9010D42E2D0200019F030FF97
:10486800DEE7C0462800002018000020001A0200D9
:10487800C0EA0100FFBFFFFF70B505000E000F483A
:10488800022186B0FEF7E8FA041E13D002210C308C
:1048980017F0FBFE0A4A4670057003A9200006239C
:1048A8000095FEF7C7FA002221000448FEF7B0FD84
:1048B80006B070BD69204042FAE7C0460C200000EF
:1048C800D400002070B50D4B050040098000C018C9
:1048D80019F0DCFE1F232B4018410124030020405F
:1048E800234208D1002D05D1054819F0CFFE00124A
:1048F8002040404270BD7820FBE7C046B812002037
:10490800D400002010B51F2301210340994040091D
:10491800034B8000C943C01819F0DFFE10BDC04624
:10492800B8120020F0B58BB05A4B002201930198C1
:10493800002315F003F8002800D092E0564D012717
:10494800280019F0A3FE03003B400393534B07AC28
:104958000293384244D022002B1D43CB43C2029815
:1049680019F094FE46062800F60F19F08FFE00286D
:1049780066D0002E0CD00C222000494919F0EBFE1D
:10498800002869D000210800FFF776FF061E64D1D1
:10499800092304A81B1802220021180019F0D3FECD
:1049A800207804AB1871A27801385A71E2789A71AC
:1049B800227904ABDA7162791A72434258410923A9
:1049C80004AA9B181900C0B2FFF7A8FD061E44D11F
:1049D80007213448FEF740FA071E44D1693E3CE0FF
:1049E800029819F053FE00122F4E38420BD0802047
:1049F800F289B1893369A280039A400020806180DE
:104A0800E2800993ABE70C2220002849D93619F037
:104A180091FE33781B0701D505236370280019F030
:104A280035FE0126800704D53023A380DB18638078
:104A380095E7280019F02AFE80103042F4D18EE75D
:104A4800002E09D00100FFF717FF061E05D10C2222
:104A58003100134819F077FE0026019814F0E6FF9C
:104A680030000BB0F0BD072205A90C3017F014FE7A
:104A7800320039000B48FEF7CBFC061EEDD10120B1
:104A880061780140FFF7F8FE061EE6D110350ECC1E
:104A98000EC5E1E7D4120020B8120020D40000208F
:104AA800C81200200B200000000000202CEC0100A0
:104AB80010B544220021064819F045FE054819F0B2
:104AC80036FA054819F033FA0022044B1A6010BD73
:104AD800B8120020D4120020E8120020041300208D
:104AE80010B5054B597C01231940431E9841C0B2AB
:104AF800FFF7C2FE10BDC046B812002070B5050011
:104B0800032804D1FFF70EFF0400200070BDFFF753
:104B1800D9FE041EF9D11F2301212B4099406809B1
:104B2800064B8000C01819F0CBFDFFF7FBFE041EF2
:104B3800EBD02800FFF7E6FEE7E7C046B8120020F2
:104B48000300F0B50C338DB004001800009317F083
:104B5800CDFD0138C3B20193019BFF2B0DD07348E3
:104B680019F094FD0123184207D0238A082B06D890
:104B780001216F4A6F4817F0FDF90DB0F0BD09210A
:104B8800009817F0ABFD037A228A013307009A4296
:104B9800EED3012308ADAB817E33AB71037AC31822
:104BA8005B7A6B71FF232B7100236B810278EA71AA
:104BB800042A01D8604B9B5C2B817B1C03933B7AB6
:104BC8005A48029319F062FD012318420BD02B8931
:104BD8005B0708D5397A0098013117F077FD019BFA
:104BE800013BDBB2B7E7781C17F00AFE00284CD06F
:104BF800791C06A817F0FAFD504E3368002B15D023
:104C0800009817F086FD05210500238A366804936D
:104C1800029B06A8238208ABDA795956009BB04755
:104C28006369ADB25D19049BE560238206AB089306
:104C3800434B1B68002B37D01D68002D00D0083D62
:104C4800083B1A68002A15D02E001D00009817F09E
:104C580060FD0490238A00990593029B08A823828B
:104C68002B6898476B4635001A8A63699B18E3607E
:104C7800059B2382002D17D0AE682B68002E11D01B
:104C8800083E002BE2D13500F6E77B782D49FF2B53
:104C980003D0791C17F0A8FE0100072206A819F016
:104CA80049FDA9E7002BD1D100232048089308AB80
:104CB8001D89012619F0EAFC01230640184289D112
:104CC8001D4287D00322300006A900F06BFD051EA7
:104CD80000D17FE7022017F0D8FE280007220399A9
:104CE8007E3019F027FD280017F021FE002814D087
:104CF8001F2331006B72280000F0C2FA280000F070
:104D0800A1FAFFF70FFE031E00D163E7094D022148
:104D180028000D4A17F035F95CE72800022100F059
:104D2800AFFA280000F08EFA54E7C046B812002007
:104D38003D1A020028EB0100561A02000413002055
:104D4800FC1200209E0F02007E100200F8B505003C
:104D580020480F0019F09AFC400739D52A78012A13
:104D680002D91624644220E06B780F2BF9D86988A1
:104D780019480B1F9BB28342F3D8AC88231F9BB200
:104D88008342EED8A142ECD3002A10D1134E002260
:104D98000023300014F0D2FD041E06D1FFF792FD67
:104DA800041E09D0300014F041FE2000F8BD17F0B1
:104DB80059FE0028EAD1D4E70C222900084819F046
:104DC800B9FC084B20001F60FFF798FE0400E9E7D4
:104DD8000B24C7E7D4000020FC3F0000E8120020A5
:104DE800BC1200200413002070B505000C4B1C6891
:104DF800002C08D0143C2368002B02D02800697AC4
:104E080098476469F4E7074C074B9C4200D370BD90
:104E18002368002B02D02800697A98471834F3E7F2
:104E28003C130020A8EA0100A8EA010010B504001C
:104E3800FDF7B0FA044B0101C918200017F008FD6E
:104E4800FEF7B0F910BDC04608130020002370B566
:104E58004D6804008E6806484B608B6019F002F9B3
:104E6800002D04D06E22310020005242A84770BDA8
:104E78006405002070B5002205000E000023002103
:104E88000848FDF7ABFA041E0AD0FDF783FA064A74
:104E980003019B1820003200290017F0B5FC04001C
:104EA800200070BD000600200813002010B5FFF791
:104EB800F7F8031E04D00121024A034817F02EFE1A
:104EC80010BDC0465B1A0200D8EA010070B50500A3
:104ED800002200230E4814F033FE002811D10D4B98
:104EE8001C68002C06D0143CA368002B00D09847FF
:104EF8006469F6E7084C094B9C4203D3280014F078
:104F0800E1FF70BDA368002B00D098471834F2E782
:104F18004C0500203C130020A8EA0100A8EA010083
:104F2800F8B50400EFF3108372B6E169002905D1E2
:104F3800002B02D162B6BFF36F8FF8BD0A68206AF2
:104F4800E261814215D0002B02D162B6BFF36F8FA8
:104F580000254E688F6808484D608D6019F082F80A
:104F6800AE4203D02A0039002000B047FEF71AF9F4
:104F7800D8E72262E7E7C04664050020034B0448EF
:104F8800DB885A1E93415B4218407047FE000020A0
:104F98000801002030B5040019F086FC0B4B0C4AC0
:104FA8001B580D008BB0934204D12000FFF7B8FFC7
:104FB8000BB030BD24342100100019F011F9002D78
:104FC800F6D06946200019F017F9F1E7080000004B
:104FD8001011002070B50D0004000026AE4202D169
:104FE8000024200070BD200001220021C83019F0E3
:104FF80020FB2300D033002802D11C000136EDE746
:10500800002CEDD0C8220021200019F09CFB2000C4
:105018000449403019F00EF920000349243019F0F2
:10502800BBF8DEE7055C00008DCB0100F7B50D008D
:10503800012104001600FFF7ADFF0021280017F03A
:105048006FFC012E1CD0022E46D12369002B07D0FD
:1050580035480121354A16F08DFF200017F097FDDD
:10506800280017F0D1FA20612269138A012B3AD857
:10507800208817F057FC0121280017F051FC0EE09A
:105088002069002808D12A4A3100274816F072FF03
:10509800200017F07CFD02E02F8A002F03D12800A2
:1050A800FDF72AFAF7BD0C3017F037FB87420CD909
:1050B800204A31001C4816F05DFF002220002169BB
:1050C80001F05CF800232361E9E720692A8AE9688E
:1050D8000C3017F0E1FAC7E733000121164A1248ED
:1050E80017F01CFDD4E7D2685678117836020E43C3
:1050F8000436B6B2B342BBD32800FDF7FDF92169E7
:105108000B8A9E4209D201210C4A0748009616F0E4
:1051180040FF200017F03BFDC4E7002301222000D8
:10512800236101F02BF8BDE7D8EA01007C1A0200E0
:10513800991A0200B71A0200DE1A0200FC1A0200CD
:1051480070B504000121BC3019F0A2FA051E0AD17D
:10515800200017F026FDB834064A2560D16A0029D8
:1051680004D1D4629462FEF71DF870BD0C60D4625D
:10517800F9E7C046FC000020F7B52E4B2E4E9C6A7E
:10518800002C02D100252800FEBD2C4B5A8B002A8A
:1051980006D03300FE33DB88002B05D19B68FFDE89
:1051A8001B68002BEED0F4E73300FC335B69002B5F
:1051B800E8D0234B1B68002BE4D02300B83B0193B5
:1051C800A4331B68002BDDD02300103B1B68002B89
:1051D800D8D027000C3F3B68002BD3D0019DAA7A7A
:1051E800072A0ED12800984700280AD02000083046
:1051F80019F04CFA022804DC280017F0D2FC05004C
:10520800C1E73300FC339A6A002A05D01168D86ACE
:105218009962824200D1D9620021201D19F038FA22
:105228003B68019898470028ADD00198FFF788FFA0
:10523800A9E7C046FC00002000000020000600206E
:105248006405002037B58578C4780121C83019F085
:1052580010FA019001A819F019FA01280BD1064893
:1052680014F04CFC054814F02DFE012D03D1012C3F
:1052780001D1FFF791FA37BD4C050020D00100207D
:10528800F8B5857A04000E0000AF8D421AD16F4B35
:10529800082D02D86E4BAD00EB586C4688B06A46B4
:1052A800936180239B006B4993836B4B516113611E
:1052B800E4210023694810324901FCF71FFAA5468A
:1052C800BD46F8BD8172002D10D0022D14D0A07AF1
:1052D800082800D9B7E0FAF7F7FE32008A006D0017
:1052E800F3FFF3FFF3FFF3FF1600F3FF8378082BB8
:1052F800EDD017F056FCEAE78378012BE7D1403070
:1053080018F0A8FFE3E7A378042BD9D0002154486C
:1053180015F07CFC00236363A363E378012BCFD1F2
:10532800A378012B03D12300032294331A702000A1
:10533800A02200234030920214F03AFEC0E7A3787E
:10534800042B03D12000FFF77DFFB9E7082DB7D85C
:105358002800FAF7A5FE28052117F7F721282800C5
:1053680025004035280018F075FF01212000FFF7BF
:1053780011FE200017F00BFC00220023280014F077
:105388004BFE9DE7022017F080FB031E04D002218C
:10539800344A324817F0C2FB637A002BD2D020007F
:1053A800FFF722FDCEE7304A330002212B4817F0E1
:1053B800B5FB85E7A378012B00D081E72B4B9A8AB0
:1053C800002A00D17CE70A23534300215A0CD80352
:1053D80000231143264A80185941FA2200239200DB
:1053E800FAF756FF020020000B004030A4E7637A6A
:1053F8003E2B0FD16D4688B06A461E4B94615361AF
:1054080003231361C4210023144810324901FCF717
:1054180075F9AD466169002902D1FDF7C3FE4FE772
:105428000B68A2696361914200D1A3612000FFF774
:105438000DFD114B1148DB885A1E93415B42184001
:1054480014F05CFBE6E70E4AAEE7C046171B020005
:10545800C4ED0100211B020003000001D8EA01008D
:10546800E0010020321B0200631B02000000002044
:10547800E70300007A1B0200FE000020080100205C
:10548800A11B020070B505000E002A0001210A4880
:1054980017F09AFB041E02D10024200070BD837807
:1054A8003342FAD12B000221044A054817F036FB93
:1054B8002000FFF7C7FEEFE7000C0020BD1B02002D
:1054C800D8EA0100F8B5070008480D00160017F0E3
:1054D80068FB041E05D083783B4203D12000FFF708
:1054E800B1FEF8BD3100A847F8E7C046000C00201F
:1054F80010B5002201200249FFF7E4FF10BDC046A5
:105508005FCB0100034BC31A03481B115843C0B2B9
:105518007047C046000C0020C54EECC470B51C0096
:1055280006000D00144308D019F0BEF90D4C0E49C1
:105538002058884201D100221300002E00D10B4EC2
:10554800300017F034F8041E06D10221084A094831
:1055580016F010FD200070BD691D0C3017F089F899
:10556800F8E7C04608000000101100207C05002064
:10557800D41B0200D8EA010010B50400044814F056
:10558800A1FC200000F022FC2000FFF72DFC10BD3C
:10559800C001002070B5051D0400280019F076F838
:1055A800000517D523002200863388321B8812880D
:1055B8009A420FD822008A3212889A420AD32300CC
:1055C8008C331A6804331B689A4203D116492800A1
:1055D80019F083F8154B1D68002D10D0143D2E6965
:1055E800002E0AD02300220021008E338C3286310F
:1055F80020001B8812880988B0476D69ECE70C4DBC
:105608000C4B9D4200D370BD2E69002E0AD023009A
:10561800220021008E338C32863120001B881288AC
:105628000988B0471835EBE7FFF7FFFF3C13002068
:10563800A8EA0100A8EA0100F8B5070008000D0073
:10564800FDF746FC061E02D100263000F8BD144BBB
:105658001C68002C10D0143CE368002B01D164694D
:10566800F7E72900380098470028EDD02800FDF713
:105678002FFC0028F3D1E7E70A4C0B4B9C42E4D2FD
:10568800E368002B01D11834F7E729003800984760
:105698000028D9D02800FDF71BFC0028F3D1D3E758
:1056A8003C130020A8EA0100A8EA010070B5060032
:1056B8000D000D480121FFF78DFC041E12D00722B2
:1056C80006722900703019F035F80123A370230001
:1056D800064AA4331A60064A1C3B1A62054A5A62F3
:1056E800054A1A60200070BD000C0020DD5E000035
:1056F800E9CA0100DDCA01001800280070B50500DC
:105708000A480E0017F04DFA041E05D08378012BC5
:1057180004D02000FFF796FD002405E032002900A0
:1057280017F071FA0028F4D0200070BD000C00209A
:10573800B0B500AF0D00FFF7E1FF04000020844280
:1057480021D02800FCF730FFA37A1049082B02D893
:105758000F4A9B0099586D468AB06A460D4B946172
:1057680053610D4BD06153620C4B11621361C2211E
:1057780000230B4810328901FBF7C0FF2000AD461B
:10578800FFF760FD0120BD46B0BDC046171B0200F3
:10579800C4ED0100FD1B0200010302040500000224
:1057A800D8EA0100F8B505000F480E00170017F0F9
:1057B800F8F9041E05D08378012B04D02000FFF7E8
:1057C80041FD00240DE0002E05D03200290017F01D
:1057D8001AFA0028F2D0A37ABB42EFD1237AAB425F
:1057E800ECD12000F8BDC046000C0020F8B5324FBF
:1057F800060038000D0018F049FF400758D5002D65
:1058080006D117F02FF9002808D116256D422CE093
:105818002800FDF75DFB0028F3D1F6E731000020F2
:10582800FFF76CFF041E04D13100FFF73FFF041E91
:1058380040D0201D002D1AD023002A8888331A80D2
:105848006A885A80AA889A80EA88DA80012118F042
:1058580037FFC00702D4200017F0A3F9A37A002B62
:1058680016D000252000FFF7EDFC2800F8BD022126
:10587800494218F032FFC007F0D52000FFF7E2FCDC
:10588800A37A032BEAD129002000FFF7F9FCE5E70A
:10589800380018F0FBFE4007E3D5002DE1D00321C6
:1058A8002000FFF7EDFC0220FFF728F90500D9E7F3
:1058B8000B25ABE70C25A9E7D4000020F0B500259F
:1058C8008BB000AFFD617D62FFF756FC0600A84271
:1058D80025D00400837AA434072B32D06B4688B0D5
:1058E8007B616A46894B9061536103231361C4212C
:1058F8002B00874810324901FBF700FF18210822C6
:105908007B6952189D46193930002368D219984787
:105918000100013D002905D13000FFF793FCBD4689
:105928000BB0F0BD30007B6AFA6917F0FBF818215C
:1059380008225218300029002368D219984701001C
:10594800E8E718200822734B734D3B601218E9886A
:1059580030002368D219984778610028DCD0EA889B
:105968003B6A9A420BD33300A83318201C680C23D7
:105978001C221B1879693000DB19BA18A0473B6A4A
:10598800FB60FB693B617B6A7B607B691B8A002B40
:1059980000D1B8E0786916F082FFB86000281DD001
:1059A80005236C4688B06A465B42936104235B49D1
:1059B800D661516113618121002355481032890154
:1059C800FBF79CFE30007969A5467B6AFA6917F0F7
:1059D800A9F81321300017F038F99DE73D685048C1
:1059E800FE35EB885A1E93415B4218400022002383
:1059F80014F0A6F8002801D00C23D2E700220023D7
:105A0800484814F04DF8041EF6D03B6943607B68A3
:105A18008360404B7B60ED88FB68AB4200D8BD8952
:105A28007B691B8AAB4243D9786916F0EDFD2900E2
:105A3800FFF720FA32007B683861FE33DB88F968AB
:105A4800C4321578994236D80235EDB2BB68137066
:105A58003300C033FB600121F86818F0FDFD002316
:105A68002360B369002B29D1B4617461B378012B29
:105A780027D1386904210C3016F020FE0223328821
:105A88009D432D031543AAB2120A42703A69057064
:105A9800128A043A827091B23A69090AC1701000F8
:105AA8001376FDF74DFA051E0DD1FDF77BFB33E7A5
:105AB80029007869BCE70123BB60C7E71C60B461B3
:105AC800D4E716256D420121F86818F0D2FD3000A0
