:020000040000FA
:10000000E843002099200000579601008520000059
:1000100000000000000000000000000000000000E0
:10002000000000000000000000000000E9210000C6
:1000300000000000000000009D2100000000000002
:1000400055230000D51B0100552300005523000057
:1000500055230000552300005523000055230000C0
:1000600055230000552300005523000055230000B0
:1000700055230000552300005523000055230000A0
:100080005523000055230000552300005523000090
:100090005523000055230000552300005523000080
:1000A000552300005523000002B471464908490059
:1000B000095649008E4402BC7047C04602B47146DE
:1000C00049084900095C49008E4402BC7047C0469B
:1000D000002934D00123002210B488422CD30124FB
:1000E0002407A14204D2814202D209011B01F8E790
:1000F000E400A14204D2814202D249005B00F8E749
:10010000884201D3401A1A434C08A04202D3001B74
:100110005C0822438C08A04202D3001B9C082243A7
:10012000CC08A04202D3001BDC082243002803D0E5
:100130001B0901D00909E3E7100010BC704701B5A5
:10014000002000F05FF802BD0029F8D003B5FFF7EA
:10015000C1FF0EBC4243891A1847C046002941D04E
:1001600010B404004C40A44601230022002900D50D
:100170004942002800D5404288422CD3012424075C
:10018000A14204D2814202D209011B01F8E7E40036
:10019000A14204D2814202D249005B00F8E78842C2
:1001A00001D3401A1A434C08A04202D3001B5C083A
:1001B00022438C08A04202D3001B9C082243CC0897
:1001C000A04202D3001BDC082243002803D01B09F5
:1001D00001D00909E3E710006446002C00D5404235
:1001E00010BC704701B5002000F00CF802BDC046FD
:1001F0000029F7D003B5FFF7B3FF0EBC4243891ABD
:100200001847C0467047C0461C2101231B04984272
:1002100001D3000C10391B0A984201D3000A083997
:100220001B09984201D30009043902A2105C40184E
:100230007047C046040302020101010100000000F2
:1002400000000000414208401C2101231B04984289
:1002500001D3000C10391B0A984201D3000A083957
:100260001B09984201D30009043902A2105C401A0C
:100270007047C0461B1C1D1D1E1E1E1E1F1F1F1F5C
:100280001F1F1F1F002B11D1002A0FD1002900D1E1
:10029000002802D00021C943080007B4024802A187
:1002A0004018029003BDC0465DFFFFFF03B46846DF
:1002B00001B5029800F06CF8019B9E4602B00CBCA0
:1002C0007047C046D0400B00D1409C46203AD340F6
:1002D00018435242634693401843704791400300CD
:1002E00090409C46203A9340194352426346D34083
:1002F0001943704710B5002903D1FFF785FF20305F
:1003000002E00800FFF780FF10BDC04602780B78BE
:10031000002A03D0013001319A42F7D0D01A704739
:1003200003000A7801311A700133002AF9D17047AD
:100330000023C25C0133002AFBD1581E7047F7B579
:10034000040C0D0091B20F0061438C46060001932E
:1003500083B2100C5F43444358433B0C60441B186A
:10036000994202D980214902641801995543714389
:10037000180C04191B04BFB24919D819091903B084
:10038000F0BD10B5002802D0FFF75CFF013010BDB2
:10039000F0B506000F0015001C0085B08B4263D835
:1003A00001D1824260D821002800FFF7A3FF390065
:1003B00000903000FFF79EFF009B21001B1A1A00DF
:1003C00028000393FFF78AFF00900191B94245D8B6
:1003D00001D1B04242D8009B019C01200021039A28
:1003E000F61AA741FFF77AFF04000D00039B002BCC
:1003F0002BD0019B009ADB0750081843019B59083A
:10040000039B9C46B9422CD801D1B04229D8320076
:100410003B00121A8B41012692185B410027B61847
:100420005F4101235B429C446346002BEAD13000CC
:100430003900039AFFF746FF039AA4197D4106008D
:100440000F00FFF74BFF241A8D410A9B002B01D0B0
:100450001E605F602000290005B0F0BD002400256B
:10046000C4E7B6197F41DCE700240025EDE7000072
:1004700010B50300034C01212000034A18F015FEBB
:1004800010BDC04614BC0100C8D8010010B504005E
:10049000081E02D0FFF7ECFF10BD0321064A0748F3
:1004A00018F0FCFD200019F00BFC0121044B186032
:1004B000080015F00BFBEFE7DCD8010014BC0100CD
:1004C000881200200122F8B5040000AF114223D0A9
:1004D000124B104200D0124B6D4688B06A469361B1
:1004E00080239B000F4993830F4B51611361E621D9
:1004F0000E4E002330001032490101F0EDF82000CB
:10050000AD460125284001F00BFC031E04D0084A2B
:100510002900300018F0C9FDBD46F8BDEED8010035
:10052000E6D80100F7D801000300000114BC010067
:1005300001D9010010B50B000321064A064818F046
:10054000B4FD064B186804F0E9FD0021012015F008
:10055000BDFA10BD27D9010014BC0100881200208B
:10056000F0B585B0314E03213000314A18F096FDC8
:1005700015F0EEF9031E02D02E4A01212AE02E4882
:1005800015F01CFA041E1CD12C492D4802AA02F0B9
:10059000F3F8011E02D02B4818F080F9002102A8C0
:1005A00003F046FE011E02DA274818F077F92748C3
:1005B00005F0E4F8002003F045FB031E11D0244AA7
:1005C000DBE701210300234A300018F06EFD032110
:1005D0002300214A300018F068FD0120404205B098
:1005E000F0BD0125032130001C4A18F057FD0222FE
:1005F0001B4B1C491C48009504F06AFA041E02D0EB
:100600001A4A0300B9E703213000194A802618F07E
:1006100045FD00273602013421000020294015F055
:1006200055FA3000390017F025F8F4E714BC010042
:100630003FD901005FD90100C504000079D901004C
:1006400080D90100CCD90100E9D901008001002046
:100650000ADA010092D90100B0D9010029DA0100BB
:1006600088BD010090BD0100A0BD01003FDA01007E
:1006700064DA0100F0B597B0059304230B921A4099
:100680000B9B0A92DA0807231A40013207001C9DCF
:1006900003910D92820700D0C6E1041D002804D00A
:1006A000072909D81C20404254E1039A1A4013003C
:1006B000141D0822D31A0393059B0426013B0693BD
:1006C000002309930C9304930293013B0793019633
:1006D000002F01D0059B23600D9B002B00DDF1E076
:1006E0009D4B059A9A4203D39C4B9A4200D2E9E073
:1006F0000B99E21B9308890700D50DE1049A0F2A94
:1007000000D9BBE0002F00D10EE104990EAA53548A
:100710000A00079912AB99540C9B01330C93F4E037
:1007200008260196069B01330693069B98780028BD
:1007300000D105E1029B002B08D12528F2D1079BAF
:1007400001330793012302930426EAE77A284AD863
:100750004B280ED8472846D829282CD825283FD002
:1007600041D82028DED0233843425841C3B20293F7
:10077000D8E74C382E2836D8FFF796FCD4353535D7
:100780003535353535353535373535353535353517
:100790003561353737616161D437D235D435183793
:1007A00018353579E63735353735E60000230893B7
:1007B0000426029327E0012213002A38C0B28340A6
:1007C00067490B42AED1E2211800890508400B426F
:1007D00035D11900114002911342A3D0089013E0C3
:1007E000079B013B07930023C1E70022069B089269
:1007F0005B7802926C2B07D10426069B01961B782E
:100800006C2B01D1B6190196013CA0193100FFF7FC
:100810005FFC70430400002F3BD0019B039ADB1B5D
:100820001B18934200D93DE7089B002B41D1019B47
:10083000042B20D108CD03600423043415E00721E4
:1008400007358D4364188C430CCD002F08D001313F
:10085000C91B03980919814200D923E7226063600C
:100860000023082602933300083401935AE7029BC1
:10087000089300239CE7019B082B01D0162012E768
:10088000072307359D430CCD0260436008230834DD
:10089000EBE7089B002B0CD1019B042B01D1043505
:1008A000CAE7019B082BE9D10735013B9D43083579
:1008B000ECE7069B023306930D9B013B0D9308CD9D
:1008C000059305E70B9B9B0722D50121E21B9308AB
:1008D000802080008242D1D2049A0F2ACED8002FE5
:1008E0001CD00498DBB20EAA13549C46079B12AA94
:1008F0001354002900D10FE780226346524213436C
:100900000EAA1354099B01330993049B01330493EA
:10091000069B0434013B07E70021D9E7002903D0F7
:10092000039B01330393F0E7039B023303930A9B7A
:10093000002BEAD10598FFF7FBFC039B1B18F1E79E
:100940008022E31BD200934298D2002F0AD1039851
:100950000838C01817B0F0BD18BA0100B4F401008F
:10096000DAFF00009B08302238603B706B469B1812
:100970000A9A1B78002A0BD0FB70099BBB70002BD6
:100980001BD100250EAE049BAB421BD1E01BE1E75F
:100990007B70F2E70EADED560EA9595C002D07DA1B
:1009A000039EA5180140B54200D97BE621700134B1
:1009B000013304999942EDD1E3E7012200237F201E
:1009C000D21BF6E7099B002B02D033787F2B1BD874
:1009D0000A9B002B1BD012ABEB5C2370002301346D
:1009E00001930123019ADB1B9B18039AE31893429E
:1009F00000D957E63378019A237001342000059915
:100A00001AF047FF019BE41801350136BBE7337844
:100A10009B00FB181A6805920A9A05981A60FFF75E
:100A200087FC431C0193DCE70E203CE6F0B59BB04D
:100A300000AF3B628023FB181B6806001B07DB0F1F
:100A40007B618378F9623A63BB6300290AD1047839
:100A5000BB6BA400E41845780419FB6A9D421BD8BF
:100A6000A31BFB62F378BB61BB6B002B04D080231C
:100A7000FB181B68DB0719D4BB69002B47D13B6B04
:100A8000002B03D030003A6AF96A9847FB6AFB638F
:100A9000BD46F86B1BB0F0BD01342000FFF748FCE9
:100AA000FB6A013001332418FB62D6E73378FB611F
:100AB0009B007B627368BB627B6AF5183B6B002B03
:100AC00000D029E1FB6AFB63BB6BEC180023BB631E
:100AD000A54232D02B789B009859FFF729FC84213E
:100AE0007B181B680130002B0CD08822BA18BB6B16
:100AF0001268934206D27A1812685B009852BB6B58
:100B00000133BB63FB6B01351B18FB63E0E78023FC
:100B1000FB181B689B07B2D53378FB619B007B6297
:100B20007368BB627B6AF5183B6B002B77D1FB6A5D
:100B3000FB63BB6BEC183B6BBB6380220523BA18CD
:100B40001268250013405A4253410133FB62BB69CE
:100B50005B00E3183B633B6BAB4299D02B787B6324
:100B60006B789B009C59B44B9C4202D3B34B9C4284
:100B700023D37B69002B33D0796BB86A17F063FEFF
:100B800000282DD06C468AB06A46AD4B5361BB6AD3
:100B900093617B6BD36180239B001384A94B13610A
:100BA00092210023A8481032890100F095FDA54646
:100BB000FB6B023BFB630235CDE77B69002B05D065
:100BC000796BB86A17F03FFE0028DBD18023012241
:100BD000FB181B68134209D1FB6BFA6A9B1AE9E701
:100BE00080230222FB181B681342E4D02000FFF789
:100BF0009FFB84217B181B68002B0DD08822BA181C
:100C0000BB6B1268934207D2791809685B00421CDB
:100C10005A52BB6B0133BB63FB6B1B18CAE7BB6B40
:100C20001C1E7B6315D0802104237A1812681A4099
:100C300014007A637A1812681A420AD00023BC6B37
:100C40007B63183340229B182900BA6BD8191AF01D
:100C500020FEBB6BEB18FB60FB63BB695B003B6179
:100C60003A69FB68944663447B60FB6B7A68934205
:100C700057D17B6B757800215A198023FB181B68AC
:100C8000D2B29B0700D46108802038180068002386
:100C9000C00705D48033FB181B685B07DB172340B4
:100CA0007270B370F17030003A6A796A3B6B9847A2
:100CB000F863002800DAEBE6FB6940203370BB6B79
:100CC0002100B370BB693A6AF37018231B18D81956
:100CD00075703B6B9847041E00DAA9E0FB6ABA6B9B
:100CE000F868991A7B6A3A6AC91A3B699C46C91A1C
:100CF00060443B6B9847002800DA9BE00025FB6BC3
:100D00001C192318FB637B6B9D4261D300213A6A57
:100D100008003B6B9847BBE6BB6B00247B63082352
:100D200090E7FB6B444A1B78BB60FB6B5D78AB00C4
:100D30009B59934202D3414A93420CD37B69002BC7
:100D400030D0B968B86A17F07EFD00282AD0FB6B56
:100D50000233FB6389E77B69002B05D0B968B86A69
:100D600017F071FD0028F2D180230122FB181B68C7
:100D700013420AD07B6B9B18073240215218796BC3
:100D8000D219DBB255547B63E1E78023FB181B6863
:100D90005B07DCD5182240215218631CD219155567
:100DA000DCB2D4E780230222FB181B68134203D075
:100DB0007B6B06320133E0E7402118225218B968F4
:100DC000631CD2191155DBB20234E4B2D554BEE72C
:100DD000402208239B18DB19EB5C0732BA1813700A
:100DE00084229B009B59BB63BB181C68002C01D05C
:100DF0006B00E45A47230121F8183A6A3B6B984785
:100E0000002817DBFB6B1B18FB63002C04D1B86BAD
:100E1000FFF78EFA013084B221003A6AB86B3B6B5F
:100E20009847002806DBFB6B01351B18FB636AE75C
:100E3000F8632DE6F8632BE618BA0100B4F401005C
:100E4000A8DA01000400000194BC0100014B186005
:100E50007047C04698010020F7B504000D001E0041
:100E6000019216F029FC03001AF0CCFD054F320068
:100E70003B5001992800A0471AF0C4FD385801F0F2
:100E80003FF9C04608000000F0B585B00392058B1D
:100E900004002B0712D407231D4002292BD1200068
:100EA00017F0D5FF00280FD00138238B042813D862
:100EB0000722FFF703F92011A0BCC200102301296B
:100EC00000D020231D432583039B002B02D162B653
:100ED000BFF36F8F05B0F0BD07261E40AE4200D0B5
:100EE000B3E01023258B1D4200D1BEE02A009A43B7
:100EF000072322831D4063690293268B002B26DA89
:100F0000002327686360236007339E43063B1E432C
:100F1000268307260022238B01921E40AE424BD12E
:100F2000002F72D0082213432383039B002B02D18E
:100F300062B6BFF36F8F002F00D18AE03D683900A1
:100F400032002000029B17F0B0FF2F00F3E70723C9
:100F500032001A40511F01291AD800212768616008
:100F600021609E43062A09D13B0003E0628B0132D7
:100F700062831B68002BF9D102331E4320002683B5
:100F800017F065FF0028C4D0202333432383C0E734
:100F9000042A09D19E432000268317F058FF002819
:100FA00002D020233343238300220726238B1700FC
:100FB0001E400192AE4294D0A268002AB0D008220E
:100FC00013432383039B002B02D162B6BFF36F8FC1
:100FD000A1680029AFD00B6803930029ABD04B6800
:100FE00032001D002000029BA847039B002B00D06D
:100FF0001B680399F0E7062621699343096801916C
:10100000334300272383B54221D1019A002A00D11E
:1010100067E7082213432383039B002B02D162B6A8
:10102000BFF36F8F20001649019B984714E0216998
:101030000426496893430191E2E705262169934319
:101040008968334301919BB2DBE700270197029740
:10105000B2E7019B002BE5D1EFF3108772B60822AF
:101060000397238B934323833BE720231D4200D127
:101070002AE72A009A43072322831D400FE7C04630
:10108000CD8E010070B505000E0017F0FCFE0028A3
:1010900032DBEFF3108272B60724288B6B8B274963
:1010A00004408B4203D1002A43D00B2032E0022CB3
:1010B0000BD101336B83002A22D0280000230222A7
:1010C000310017F0F2FE022016E0062C1CD820009A
:1010D000FEF7F4FF041A1A1A0422040000233360F6
:1010E0006B68002B09D16E602E60002C1BD1022191
:1010F0002800FFF7C9FE200070BD1E606E60F4E797
:1011000062B6BFF36F8FD8E7002A02D162B6BFF391
:101110006F8F05204042EFE7002A02D162B6BFF38D
:101120006F8F8620F6E7002AE5D162B6BFF36F8F96
:10113000E1E762B6BFF36F8FB7E7C046FFFF00007D
:10114000F7B505000600002D01D13000FEBD2800D6
:10115000FFF778F801238340DA430E4F04019D43E3
:101160003B1901931B7B0092002BECD0E3591B69C8
:10117000002B09D1009B3C191E40636804221968AA
:10118000019800F05DFADEE7381998470028DAD1B7
:10119000F0E7C046E4BC0100F0B5002289B00F4979
:1011A0000F481AF0D0FA0024002600270E20C02293
:1011B0000C4D03900696079728000B4B0B4904949F
:1011C000029401940094920015F0ACFF08492800A5
:1011D0001AF033F9200009B0F0BDC046F511000047
:1011E000480B0020C8060020E914000060250020FC
:1011F0005CDB010010B5024815F0C2FC10BDC04612
:1012000048050020F7B500902048019117F0FDFE39
:10121000061E36D000252800FEBD237B002B0FD0F4
:101220002368DB68002B01D02000984723681B69E6
:10123000002B1ED1636804222000196800F000FA18
:1012400001361034124B9C42E7D3009B002BE2D0B6
:10125000A42600277600002DDCD02800FFF770FFC1
:10126000019B0500002BF6D03000390016F002FA81
:10127000F1E7200098470028DCD03B00B3401D4335
:10128000DEE705000127034CDCE7C0469C12002086
:10129000F4BC0100E4BC0100014B8000C058704761
:1012A000C8BD0100030010B50800002B05D0044A9A
:1012B000136000F0B7FC002010BD16204042FBE791
:1012C0009C01002010B5054C2378002B02D1044866
:1012D00015F056FC0123237010BDC046AC2400203D
:1012E0004805002010B50400074817F08EFE002CBA
:1012F00003D0012105481AF06BFA05481AF02FFABD
:10130000044815F03DFC10BD9412002098120020F6
:10131000480B00204805002010B5002101481AF0B4
:1013200066FA10BD9412002070B5FFF7F5FF0500B6
:10133000084C094B9C4200D370BD63685B79002B5D
:1013400006D023685B68002B02D029002000984754
:101350001034EEE7E4BC0100F4BC010010B5044C0D
:101360000449200017F0A8FB034B1C6010BDC046C9
:10137000B0040020B4BD01008C12002000238021A5
:10138000064A10B51370064A09021360054A06485A
:101390001360FFF787FFFFF7E1FF10BDAD240020CA
:1013A00094120020981200200390010010B5044C04
:1013B000010000220023200017F09FFB10BDC04653
:1013C000B004002010B5024817F031FC10BDC04633
:1013D000B004002010B5034B0100186817F078FC2A
:1013E00010BDC0468C12002010B5024817F0A9FCB1
:1013F00010BDC046B004002070B5234B18780028FB
:1014000036D0FFF7DFFF051E0AD001211F481AF072
:10141000DFF91F4C1F4B9C422BD32800FFF7DAFF4C
:101420001D4B1E4C1B68002B17DD1AF042F9FA22E7
:1014300000239200FEF783FF4D04C20BCB0B2A431F
:1014400020686168121A8B411100002B03D1FA2326
:101450009B00994201D9FFF767FF22686368FA2071
:101460000021800012184B4122606360FFF7BCFF2F
:1014700070BD63685B79002B04D0236829002000CD
:101480001B6898471034C5E7AC2400209812002050
:10149000E4BC0100F4BC010094120020400B0020C9
:1014A00070B50E4D297800290CD10120FFF7AAFE56
:1014B0000B4C0C4B9C4206D3FFF79EFF0028FBD140
:1014C00001232B7070BD63685B79002B03D0236808
:1014D00020009B6898471034EBE7C046AD240020FD
:1014E000E4BC0100F4BC0100F7B500210800FFF7DF
:1014F00089FE041E2CD000261E4F1AF083FA1E4BC4
:101500001E4A1B581360002B06D01D4B1B68092B6D
:1015100002DD1C4815F034FB00230093002C07D09B
:101520002000FFF70DFE041E02D101277F423E007E
:10153000FFF762FF0190002808D1009B124D002B9D
:1015400013D110483A00330015F03CFB019BE4E74F
:1015500001277F423E00D0E72B689B69002B03D018
:1015600000222800110098471035084B9D42F3D304
:10157000E7E7C04667060000080000009012002060
:101580009812002048050020E4BC0100F4BC0100D2
:1015900013B5164817F039FD154B1B78002B0AD0F0
:1015A000EFF3108472B6FFF727FF002C02D162B66A
:1015B000BFF36F8F13BD0F4B1B68002BFAD00028B1
:1015C0000AD10022002300920193802200230A48BE
:1015D000120216F0DBFAEDE70928EBD106481AF003
:1015E000BEF8064815F0CCFAE4E7C0469812002091
:1015F000AD24002090120020480B00204805002058
:1016000010B5064B04001B6898472100A0600448F1
:1016100017F0F1FAFFF7BCFF10BDC0469C01002097
:10162000B0040020044B054A00209B1ADB089942B5
:1016300001D2C90088587047E4BC010014BC010005
:10164000084B10B5C31A44681B110133237143685A
:101650009A7101224368196043685A71FFF732FE9C
:1016600010BDC046E4BC0100F0B55E1C85B0B500FD
:1016700000902800072317309843033080080F009C
:101680000192FFF793FE02AB04000322581D0021D4
:101690001AF008F903AB1E70002C0BD0039B21003D
:1016A0002361002314312A1F0198C058C850043305
:1016B0009A42F9D1E023BA015B001A406D02054B52
:1016C0002A431A4020000023009917F0CEFC05B0F1
:1016D000F0BDC046C0FF0F00F0B591B004AF3B6055
:1016E0000B035B0D0D0078607A613B610C0D002BE4
:1016F00000D173E0BB60002604237E62BE62FE62FE
:1017000002931833FB1801930A2318220093023323
:101710009B18DB193200B9687869FFF787F98023D5
:10172000F8601B01984224D37B696C461A795B7977
:101730008AB01B0213437A69927912041A437B69B7
:10174000DB791B06134304AA9361294B2949D36112
:1017500080239B001384284B516113619221330035
:10176000264810328901FFF7B7FFA546BD460DB0E8
:10177000F0BDFB6817345B055A0D3A61204A1B0B1C
:1017800015401D43FB68E018072398430330800889
:10179000FFF70CFE041E15D0030010337B62FB68BC
:1017A000FE62BB62042302931833FB1801930A23E1
:1017B0001821009302335B18124AB9687869DB1963
:1017C000FFF734F93B690E4A5B0215401D432A00BE
:1017D00020003B68796817F048FCC7E72000072322
:1017E0001730984303308008FFF7E0FD0400E9E775
:1017F000FF07000071DB010004000001ACBC010028
:10180000FF01F0FF3D900100F0B587B00E9F04008E
:10181000150002910393002F15D00F9B1021059303
:10182000009300203B000D9AFEF724FF8023060062
:101830001B01984208D30221174A1848184B17F089
:1018400034FC07B0F0BD3E00072322000C9C1D4075
:101850001A40D2001734AD011543A0197202154386
:1018600098430C9A0330120580081543FFF79EFD3C
:10187000041E09D0002F07D00F9B310000930D9A52
:101880003B001030FEF7F6FE2A002000039B029971
:1018900017F0EBFBD5E7C046B0DB0100ACBC0100A4
:1018A000FF0700004068002804D0044BC01AC0089D
:1018B00000B2704701204042FBE7C04614BC010063
:1018C0000EB417B5054C05AB04CB01002000019305
:1018D00000F064FD1EBC08BC03B01847079101006E
:1018E00010B5CB0604D4890603D50349FFF7E8FFFA
:1018F00010BD0249FAE7C046E9DB0100E8DB010060
:10190000F0B58FB0069315AB1B7807000C0005925D
:101910000493002B00D1B4E00225199B199A1D40B5
:1019200001231A400B92199A07331A400792199A09
:10193000F8331A400892002617F07EFB0200B042EE
:1019400004D038008D49FFF7BBFF0600002D09D0F9
:101950004423199A1A4235D1220038008849FFF7EA
:10196000AFFF36180B9B002B0AD0049A854B9200D0
:10197000D258002A00D1844A38008449FFF7A0FFDA
:10198000089B002B5AD0079B002B77D11C00059B8E
:10199000002B05D01A0038007D49FFF791FF0400A5
:1019A000169B7C48A419002B00D0BEE0189B002B8E
:1019B00074D1199BDB0700D5DAE038001999FFF7DD
:1019C0008FFFBEE00020744B1D688542C9D0734B69
:1019D00020001968FEF77CFB2900FEF7B5FB0C0020
:1019E000E12109010990FEF7AFFBFA2080000A917E
:1019F00060432900FEF7A8FB0C000C903C210A98DC
:101A0000FEF766FBE1210D9009010998FEF760FBE6
:101A10000990FA20800029006043FEF759FB0C9BD7
:101A200002903C210A980193FEF78EFB380000914A
:101A30000D9B099A5A49FFF743FF92E7079B089CC1
:101A4000002B08D0049A574B920038005649D258C0
:101A5000FFF736FF0400059B002B05D01A00380065
:101A60004B49FFF72DFF2418069B002B98D01A0036
:101A700038004E49FFF724FF241891E7002306930E
:101A8000E0E7069B4A48012B00D14248169B049C84
:101A9000002B4AD1189B002B53D00024189E102EE7
:101AA00000D9102638001999FFF71AFF0025AC421B
:101AB0004CDC179B38001A783E49FFF701FF0125DF
:101AC00007231D4203D138003B49FFF7F9FEAE4220
:101AD00042D9179B38005A5D3649FFF7F1FE0135B0
:101AE000102DEDD1002538003449FFF7E9FE2B0019
:101AF000179AD25C1300203B5E2B00D92E223800AF
:101B00002F49FFF7DDFE0135102D2AD007231D4296
:101B100003D138002849FFF7D3FE2B00AE42E7D8A7
:101B200038002549FFF7CCFEEDE7169B3A00254922
:101B300016F055FE189B002BB0D1049B002B00D053
:101B400037E7380017F0D3FA0FB0F0BD38001A4964
:101B5000FFF7B6FE0135AAE738001B49FFF7B0FED4
:101B6000BDE7179B9B191793189B9B1B1893E2E7E4
:101B70003800054A0549FFF7A3FE1EE7F0DB010028
:101B8000F4DB0100D8BD0100EBDB01001EE4010025
:101B900019DC010007910100A4120020A01200200E
:101BA000FDDB0100ECBD01001DDC010023DC0100B8
:101BB0002D91010028DC010030DC010032DC010045
:101BC00034DC01009D2300002EDC010073B5114AB6
:101BD00004000B000568914200D9130005216846F6
:101BE0000D4A16F09FF80600636828000B220B4987
:101BF0005B6817F06DFA63683200280069465B681D
:101C000017F066FA636828001B2205495B6817F025
:101C10005FFA73BD0F270000E9E0010053DC01000B
:101C200037DC0100012310B500211C00074A904257
:101C300007D8074A002900D101231360054B18601B
:101C400010BD210040085B00F1E7C04640420F0094
:101C5000A0120020A412002070B50D000400461848
:101C6000B44201D1280070BD217803480134836853
:101C70005B689847F4E7C046E0BA010010B5034836
:101C800016F00CFE024816F009FE10BD99DC0100AA
:101C9000CEDC010001394A425141014B19707047B5
:101CA000B024002010B502A90988012B0DD100290C
:101CB0000ED109490968002901D1012010BD107811
:101CC000012807D818408847F7E70D204042F5E77C
:101CD0000720FBE71320F9E7D4120020F0B5050038
:101CE000002087B005930CAB1E880B4B0C005B6883
:101CF000049283420DD0CF689847084B210018709A
:101D0000012328000293049A059B0197009618F07E
:101D100057FE07B0F0BDC046D4120020AF2400200B
:101D200030B589B06B46DD1DD8710C4B1B78002B8C
:101D300010D002AC00211822200019F0B3FD084B8E
:101D400021000393012300200495A38105F0D6FF11
:101D500009B030BD0D204042FAE7C046B024002053
:101D60005CBE010003000449103302788A5C0270F3
:101D700001309842F9D1704758DD0100F0B58DB0BF
:101D800001AC22000500244BC1CBC1C2C1CBC1C2F2
:101D9000C1CBC1C241CB41C2281E3BD0081E39D0A5
:101DA00028000D00020010350B784E781B06360413
:101DB0003343CE7833438E7804313602334308C23E
:101DC0008D42F1D1182304229C46FF27134E032194
:101DD000C3680A4216D16146CB41190E755C1900E1
:101DE0003940715C2D060D43190C39401B0A715C9A
:101DF0003B40F35C090429431B020B439108890013
:101E000061584B40016801324B40036104302C2A79
:101E1000DDD101200DB0F0BD00BD010058DD010095
:101E2000F0B585B000AF0C1EB86036D06E468AB0F3
:101E30006D4609686268A3682B6205232048A96182
:101E40006861EA612B61A1212A001E48103200233B
:101E500089017A60F860FFF73FFCB546E168AD465E
:101E6000226963692B6205231748A9616861EA61E9
:101E70002B61A12100237A68F8688901FFF72CFC07
:101E8000B546E3690121114AF86817F00EF9A36914
:101E900001210F4AF86817F008F9BB68012B07D138
:101EA000EFF305830B4A0748B968103B17F0FDF8BC
:101EB0002100B86814F0B0FBBD4605B0F0BDC046C7
:101EC00058DE0100D4BC010087DE0100B6DE01004F
:101ED000C5DE0100F3DE010030BFFDE7F7B50A4BB8
:101EE0000A4D0600EF18CC1B2A0020000849019378
:101EF00019F0CFFC60190021019A19F0D3FC3800C9
:101F0000083CB4660830FEBD04000000000000007C
:101F1000F4BC0100074A9368997B7F2908D852696D
:101F2000934205D08023044A5B0551680B435360FC
:101F30007047C0465C24002000ED00E0F0B53E4B49
:101F40008BB05B6800AF7B60DB05DB0D04003B60A2
:101F500062B6BFF36F8F394E130EFF2B08D1F33BE0
:101F60001340082B3DD101213000354A17F096F877
:101F700000252C003B68032B39D1324A0121300067
:101F800017F08CF8A369304A934202D32F4A934248
:101F900005D32F4A934249D32E4A934246D2023B5D
:101FA0001A882D4B9A4241D12368012130002B4AD7
:101FB00017F07BF8266808232022F818210019F072
:101FC00068FC7B6A002D33D0DA0502D1244A134322
:101FD0007B6208233000F918FFF722FFBD460BB0E3
:101FE000F0BD01251207C5D50C000025C2E7F82277
:101FF000796852001B4B114200D01B4B6A468AB0D5
:102000007A606A4693613B681849103BD36180232C
:102010009B001384164B5161136191210023300002
:1020200010328901FFF758FB7B689D460026C2E706
:102030005B0A5B02CCE7C04600ED00E0D4BC0100C7
:1020400034DF01005FDF0100A800000010BA0100CA
:10205000000000200000002002DF000076DF010009
:10206000FF01000006DF01001BDF010092DF01001D
:10207000040000010821024A53698B4353617047F1
:1020800000ED00E0EFF30880EFF3098101B572463F
:10209000FFF754FF01BDC046002080F31488BFF352
:1020A0006F8F13F031FD0A4880F3088800F016F8AE
:1020B00072B608480849401880F30988EFF3148085
:1020C0000221084380F31488BFF36F8F17F0D0FA12
:1020D000E8430020E83200200008000072B6012228
:1020E000064B5242191DCA67C02149005A5062B6B8
:1020F000BFF34F8FBFF36F8F7047C04600E100E022
:1021000010B50A4B9B6883420DD1EFF30583002B7A
:1021100009D08022064B520559680A435A605A6A10
:1021200004490A405A6219F06FFA10BD5C2400207D
:1021300000ED00E0FF7FFFFF0B21084A4942936852
:102140001967D866802306495B05486803434B60DE
:1021500062B6BFF36F8F9368186F70475C240020DE
:1021600000ED00E0EFF3108372B68021084A090504
:1021700053699360074A5160996E074A11600021C4
:10218000DA6ED9668A4202D162B6BFF36F8F7047AA
:102190005C24002000ED00E0DC12002010498A6879
:1021A00010481044EFF3098CF0C043464C465546A6
:1021B0005E466746F8C074467046FFF7D3FFA646F2
:1021C00007498A68074C10191030F8C89846A1468C
:1021D000AA46B346BC462438F0C88CF30988704739
:1021E0005C2400203000000004207146014202D02F
:1021F000EFF3098001D1EFF3088081690239097892
:102200000229FFD001B517F020FA01BD43B2000644
:1022100005D41F221A4001239340014A13607047DE
:1022200000E100E043B2000609D41F221A40012356
:102230009340034AD367BFF34F8FBFF36F8F70474D
:1022400004E100E0054A43099B009B581F2210400F
:102250001E3A8240134018007047C04600E100E07B
:1022600030B5FF2503220B00290040B20240D20006
:1022700091409B012B40C943934000280ADBC024B6
:102280000A4A800880008018A40002590A401343BB
:10229000035130BD0F2210400838054A80088000E5
:1022A0008018C26911401943C161F2E700E100E002
:1022B00000ED00E010B5203A1360029B012453604A
:1022C000039B06499360049BA143D36080235B0476
:1022D000D361002391610265C36610BD590E0000F1
:1022E00070B5094B0E009860816E084B150019609F
:1022F0002C1C86F309880020054B9847201C0021E0
:1023000000220023034C20475C240020DC12002024
:1023100087960100590E00001022014B1A61704788
:1023200000ED00E0F0B5C02400220326FF25A40044
:1023300010002F003040C0008740054993089B00E3
:102340005B1819590132B94319511A2AF0D1F0BD5D
:1023500000E100E010B5EFF30583054A103BDB0018
:10236000D118496898588847FFF7D4FD10BDC0467A
:1023700008BB010010B5024B1B689847002010BD38
:10238000E0120020034B044A1860022391780B43AB
:1023900093707047E0120020D0010020F0B587B0A4
:1023A00007000E0014000021102268461D0019F0DD
:1023B00079FA6A4602239370054B2A002100684689
:1023C00001930497059615F0DBFC07B0F0BDC046FD
:1023D000B5960100072310B50449054A99430548FD
:1023E000521A16F0A6F9002010BDC046FB5400207A
:1023F00000800020E412002070B541690400867A54
:102400000A4D00290BD0437ADB0706D42C237343F3
:10241000EB185B6A1B689B689847002363612C2359
:1024200073432100E81818F0E5FE70BD9005002008
:102430002C234343014818187047C04690050020DC
:102440002C2210B5817A064B4A439B189A6A197F51
:1024500003231B31801A9943FDF73AFE10BDC04695
:10246000900500202C2270B5847A064B62439B189D
:102470005B6A9C685A680C601568FFF7E1FF60436F
:10248000281870BD90050020F0B587B0050002A89F
:1024900014001F00059119F010F9029A039B009295
:1024A0000193EFF3108672B66B8B002B44D02A8B0E
:1024B0009A4227D900220023280014F033FB041E7F
:1024C00020D0002E02D162B6BFF36F8F059B002B88
:1024D0004ED0009A019B02A819F00FF92C20A57A82
:1024E0002C4968430918496A20000968029A0D6856
:1024F000039B05A9A847606100283AD12000FFF797
:102500007BFF31E0698B4B1E6B83002E02D162B6DC
:10251000BFF36F8F03232A7FAC6A1B329A432B8B46
:102520005B1A5343E4181B4B1B4AEB1A9B10534393
:10253000A3722B7FE372C9E7002E02D162B6BFF30C
:102540006F8F23003B4308D019F05CFA134A144BF9
:1025500012589A4201D10024270022003B00280093
:1025600014F0E0FA041EB1D10024200007B0F0BD41
:1025700063610123002520002381059B29006382DC
:10258000E27A6560183019F08DF963692582E3609D
:10259000EBE7C04690050020A38B2EBA0800000090
:1025A0005811002070B52C24002800D170BD037A8A
:1025B0004568013BDBB20372002BF7D1827AC3601E
:1025C00062434360054B9B181B6A002B02D098475F
:1025D0002800E9E7FFF710FFFAE7C0469005002062
:1025E00010B5022805D90123024A0238000113431D
:1025F000984710BD80BD010010B5054818F07AFC61
:10260000002801D0002010BD13204042FBE7C04647
:10261000B8BA01000300F0B5402900D940210B4AA7
:102620000F2710000A4D5E18B34203D10023490062
:102630004354F0BD1C7824092C5D14701C780133C0
:102640003C402C5D54700232EEE7C046CF2400209F
:1026500018E0010030B503788BB0040007AD032B00
:1026600023D81800FDF72AFD021B1D1F1249280060
:10267000FDF756FEA3790595617810480491A1787D
:102680000F4A0391E1780291217901916179040067
:1026900000911E2115F046FB20000BB030BD09490A
:1026A000E5E70949E3E70949E1E70A212800084A83
:1026B00015F038FBDEE7C046DADF0100B124002068
:1026C000F5DF010079D90100E1DF0100EBDF010056
:1026D0009CEF01007FB50024094D0A4B28000293AE
:1026E000039418F054FEA32202AE28000A230649E0
:1026F0000096D20014F032FC200004B070BDC04639
:10270000800B002029E001006028002010B5034C58
:102710000100200014F066FC10BDC046800B0020B4
:1027200070B5037805000C00012B0DD0022B1AD0D8
:10273000002B08D1112220000E4919F0AAF86B884D
:1027400063731B0AA37370BD11222000094919F09D
:10275000A0F86B689AB263731B0C120AE3731B0A2E
:10276000A2732374EFE701001122200019F091F801
:10277000E9E7C04632E0010070B50D00511C1400BD
:1027800017F0C0F800280DDB28001E49FDF7BEFD3C
:10279000031E05D028001C49FDF7B8FD031E08D113
:1027A0000020237070BD0123FAE70223F8E703231A
:1027B000F6E728001549FDF7A9FD0028F3D0280009
:1027C0001349FDF7A3FD0028EDD028001149FDF7BE
:1027D0009DFD0028E9D028000F49FDF797FD00284E
:1027E000E3D028000D49FDF791FD0028DFD0280037
:1027F0000B49FDF78BFD03230028D1D01620404262
:10280000D0E7C046DADF010043E0010079D90100DA
:102810004CE00100E1DF010055E00100EBDF0100C9
:1028200061E0010070B50500054816F054FF041E74
:1028300004D001210C3016F0B0FF2576200070BDC9
:102840006C06002010B50F280DD80D280DD90C48A6
:1028500016F041FF041E10D001210C3016F09DFF30
:102860000123237609E01328F1D0002901D005487F
:10287000EEE70120FFF7D6FF0400200010BDC046A0
:1028800098060020E805002010B5C36802211B78D7
:10289000024A034817F0D2F810BDC0467CE00100A0
:1028A0006CBC010070B5C668B57873782D021D4305
:1028B0003378002B0FD10F21280002F013FDF2789E
:1028C000041E09D108490B88002B04D1074B2B4368
:1028D0000B80074B1A7070BD4272012102F03CFC64
:1028E000200002F01BFCF6E79424002000F0FFFF1C
:1028F0005025002070B5C3681E78002E0FD19D783A
:102900005A782D0215430F21280002F0EBFC041E1B
:1029100006D12B000121064A064817F08FF870BD3A
:10292000310002F019FC200002F0F8FBF7E7C04686
:10293000A4E001006CBC010010B501210C3016F0C0
:1029400061FF01210378024A024817F077F810BDB1
:10295000CAE001006CBC0100084B010010B5180072
:1029600016F0BFFE064814F0EFFA031E04DA012148
:10297000044A054817F062F810BDC0464C0100201B
:10298000F0010020ECE001006CBC010010B5074C28
:1029900001000622207802F087FF002804D10522DA
:1029A0000349207802F080FF10BDC0466F00002070
:1029B000C0DF010010B50121024A034817F03AF8C0
:1029C00010BDC04609E101006CBC01000B00B0B5B0
:1029D0000D8A00AF04002900D868FFF71BFE8AB0FB
:1029E0006A46B221074BD5615361074B106293844D
:1029F000064B9461136106481032890117F026F8DE
:102A0000BD46B0BD23E10100020400000500000145
:102A10006CBC010070B5C5680121AE786B783602D8
:102A20001E43300002F05EFC041E06D1330001217B
:102A30000A4A0B4817F002F870BD2B78002B04D11E
:102A40000822E91C953018F024FF8021201DC901BF
:102A500016F0F8FF200002F061FBEDE745E1010010
:102A60006CBC0100B0B5050000AF3C281AD101F0E4
:102A7000DDFE81211030494216F0EDFF0020FFF706
:102A800085FF041E06D10121104A114816F0D2FF1D
:102A9000BD46B0BD4572002102F05EFB200002F091
:102AA0003DFBF5E76C468AB06A469221094B90617E
:102AB0005361094B0648D361084B10321382084B0F
:102AC0008901136016F0C2FFA546E1E769E1010044
:102AD0006CBC01008AE10100EADB01000103000097
:102AE0000400000137B504000800DB00D3189A4247
:102AF00001D15F200FE0110015780831A54210D1F7
:102B0000038A5178994208D907480121074A00945D
:102B100016F0D3FA1620404202E05368984700208E
:102B20003EBD0A00E3E7C0466CBC0100A6E101001F
:102B300073B53E4816F0E8FD041E4FD0017E012912
:102B40004DD0032900D06DE0038A032B05D8384A05
:102B50003848023916F072FF19E004210C3016F0E3
:102B600051FEC178837845780902194303782D0214
:102B70001D43FF2328056376238A000DA083994215
:102B800009D02D4A00912B48012116F096FA200019
:102B9000FFF708FD14E00F2102F0A4FB061E04D18C
:102BA000A38B264A23480121D4E702F0DBFB210056
:102BB00060762A0B300002F0A5F9300002F0AEFA80
:102BC0001F4B1B6D002B09D01E4814F0BDF9031ECE
:102BD00004DA01211C4A174816F030FF73BD038A3E
:102BE000012B02D8194A1348B4E702210C3016F021
:102BF00009FE0500007816F00BFF80070BD4144A7D
:102C000014491548154B15F054FE62B6BFF36F8F8B
:102C10000323181C02DF04232100114A287816F030
:102C20001EFFB4E70B000F4A0248BCE74C0100202E
:102C3000C8E101006CBC0100E9E101000DE2010006
:102C4000FC000020F0010020ECE001002FE2010078
:102C50004BE201007FE20100ADE20100A80B0000A1
:102C600048BF0100CAE2010010B5012104000C3088
:102C700016F0C8FD05232100024A007816F0EFFE89
:102C800010BDC04668BF0100F8B50121060000AFC5
:102C90000C3016F0B7FD05780023310028000F4AEC
:102CA000FFF720FF5F3017D1348AF0682100FFF76B
:102CB000B1FC6E468AB06A46B221094B106253617C
:102CC000084B95619384084BD46113610748103217
:102CD000890116F0BBFEB546BD46F8BD90BF0100A8
:102CE000DEE2010002040000050000016CBC0100EE
:102CF000F0B585B0070016000291404B0021180086
:102D0000039318F080FD041E07D13B0001213C4ACB
:102D10003C4816F093FE05B0F0BDFFF791FB0C2385
:102D20005843394D28184388BB4217D02000FFF77D
:102D300087FB0C2358432818438801210093334A0A
:102D40003B00304816F0B9F92100039818F05BFDFC
:102D5000041EE0D02000FFF725FCDCE7A6420ED0E1
:102D60002000270016F0B2FC01210C373800217634
:102D700016F013FD3800328AF16816F021FD2000AC
:102D8000FFF75EFB0C26704328184368002B16D013
:102D9000029B002B13D12000FFF752FB4643AE19D4
:102DA00072681F26012153681068127A1E40B140D4
:102DB0005B09002A1BD09B00C01816F043FE2000C0
:102DC000FFF73EFB0C26704328188368002BC1D008
:102DD0002000FFF735FB7043029B2B542000FFF7C8
:102DE0002FFB4643AD19A86813F0CAFEB2E79B005B
:102DF000C943C01816F02FFEE1E7C0464801002085
:102E000010E301006CBC0100F012002038E3010067
:102E1000F7B5C36800AF1D787B60018AAB00013352
:102E200000268B4219D96C468AB06A46D36111627A
:102E30000523A1212C489561506113612B48103264
:102E4000890116F003FEA546BD46F7BD2B00012102
:102E5000274A264816F0F2FD01367B681B789E4211
:102E6000F2DA7A68B300D3189A785D7812021543C3
:102E7000DA781B790F211B02134328003B6002F014
:102E800031FA041EE2D03D68013D1A4BADB29D42BD
:102E90000CD0200001F0DEFF13F072FE6369002BFE
:102EA00008D10121144A114816F0C4FD200002F097
:102EB00035F9D1E71A68A16962618B4200D1A2613C
:102EC00000221A60226A002A0BD12362E3612000EB
:102ED0000121C03018F07CFC0021200001F0C6FF69
:102EE000D2E713602362F2E76BE301006CBC0100E0
:102EF00095E30100FFFF0000B1E30100F7B5C568ED
:102F00000121AE786B7836021E43300002F0EAF9F8
:102F1000041E06D1330001212D4A2E4816F08EFDE5
:102F2000F7BD2B78061D1A2B1AD1C378012B34D18B
:102F300080277F013900300016F084FD38420FD120
:102F4000230088331B6869460093230090331B6875
:102F50002000019302F0A8FF200002F0DFF8DFE775
:102F60002B78002B19D12B79EA781B02134322000E
:102F700086321380AB796A791B02134322008C32AC
:102F800013802B7AEA791B02134322008E321380BE
:102F90003000114916F05FFD15E0300018F025FCF7
:102FA0004005F5D52B78202BF2D1220094321378EE
:102FB000002BEDD0013B13702000A02200239202D1
:102FC000403014F037F8200002F04CFBC4E7C04654
:102FD00045E101006CBC0100FFFBFFFF10B50C00D8
:102FE00002A90978226063602172FFF729FA0C2296
:102FF0004243024B9B185C6010BDC046F01200209B
:10300000F0B585B0019001225242D31718480391C0
:1030100016F061FB041E27D0030000270C330121AA
:103020001800029316F0B9FB20002776FFF708FA84
:103030000C2670430F4D019B281843802000FFF79A
:10304000FFF97043281887602000FFF7F9F946431D
:1030500003210298AD196F6016F0ABFB019B037062
:103060001B0A4370039B8370200005B0F0BDC0466F
:1030700040060020F012002030B50288438801008D
:1030800000209A4218D8052A16D9C8221201934264
:1030900012D8FA248A886400A2420DD2C988074D4A
:1030A0000C000A3CA4B2AC4206D8013292B253439F
:1030B00089008B429B41584230BDC046760C0000CF
:1030C00030B591B001AD04003C222800044918F04D
:1030D000E0FB04480E2C01D8A400605911B030BDAB
:1030E0002CBD0100C8E3010010B5034B0100186FAF
:1030F00083689B68984710BDFC000020F7B5050069
:103100000C350400280016F090FB0190278A012F4F
:1031100009D83B000121174A174816F08FFC200000
:10312000FFF740FA24E00221280016F06BFB0600AE
:10313000007816F06DFC0500C3070BD40F4A104948
:103140001048114B15F0B5FB62B6BFF36F8F032328
:10315000181C02DF052321000C4A307816F07FFC92
:10316000AD07DCD56B469A88636927829B18E360BC
:10317000F7BDC0462FE201006CBC01004BE201002C
:10318000D0E30100ADE20100E40F000020BF010028
:1031900070B50C0014F0B8F9267E012E05D0032E70
:1031A00014D12000FFF7D8FB0BE0E368187816F085
:1031B0002FFC0500304202D02000FFF79FFFAD0733
:1031C000EFD4002414F0B0F9200070BD33000121C9
:1031D000044A054816F032FC20001624FFF7E2F9F5
:1031E0006442EFE7E9E301006CBC0100F7B504219C
:1031F0003F4800AF16F026FC3E4C3F4DE379012BD3
:1032000000D93E4D2000FFF725FA6E468AB06A4687
:10321000A3213B4B956153613A4B3B4D13623B4BB2
:10322000D061136128001032890116F00FFCB546F9
:103230000126E3799E4240DB230070331B786E4603
:1032400018007B60FFF73CFF2300723319882300CE
:1032500076331B888CB03B606A462D4B11625361FC
:103260007B68D321D3613B689061536280239B00CC
:103270001385284B280013618901103216F0E6FBF4
:103280002200B5467132167874343000FFF718FF0B
:103290008AB023886A46136280231F499B005161CC
:1032A000B32193841D4B9061D6612800136189017D
:1032B000103216F0CBFBBD46F7BD07207043201837
:1032C000FFF7C8F96B468AB06A467B609321144BBE
:1032D00096615361134BD0611384134B2800136123
:1032E0008901103216F0B2FB7B6801369D46A0E7DB
:1032F000D400002000000020EADB0100FDE3010013
:1033000001E40100000201036CBC010004000002A2
:1033100021E40100060000015FE401000500000156
:1033200010E40100010300000400000110B503488F
:1033300018F05BFA4007C00F10BDC046D400002053
:103340000048704785DA010010B5024813F0FCFD13
:1033500010BDC046E001002070B505000C1E03D171
:10336000FFF74EFE041E1AD00E4B9D420FD12000D7
:10337000FFF7BAFE051E08D00B482B0001210B4AAF
:1033800016F05CFB2000FFF70DF9280070BD21004E
:10339000074817F026FF0025FFF7D6FFF5E7692558
:1033A0006D42F2E7350C00006CBC010086E40100C0
:1033B0005401002070B504000E000B480321FFF7F4
:1033C0001FFE051E02D1FFF7F5FA70BD03210C3078
:1033D00016F0EFF90470240A447086702900024840
:1033E000FFF7BAFFF1E7C04621200000F7B5C36838
:1033F0005D781A782D021543DA78997812020A431B
:1034000069460A805A79197912020A4369464A8044
:10341000DA79997912020A4369468A801A7A5B7AC4
:1034200028001B021343CB80012101F05BFF061E25
:103430000AD1012123482B00234A16F0FFFA02216A
:103440002800FFF7B7FFF7BD694602F05DF90028D5
:1034500007D11E212800FFF7ADFF300001F05EFE0E
:10346000F1E70E211948FFF7CBFD071EF5D00E211D
:103470000C3016F09EF90400042200210A3018F0E6
:1034800011FA6B4625702D0A65701B783900A37000
:103490006B465B780D48E3706B469B7823716B46F7
:1034A000DB7863716B461B79A3716B465B79E371C3
:1034B0006B469B7923726B46DB796372FFF74CFF97
:1034C000CBE7C0466CBC010045E1010020200000B4
:1034D000F8B502000B002B492B4E896D002901D154
:1034E0000020F8BD294D280013F06CFB0028F7D10F
:1034F00000220023264813F015FB041E0BD1254A99
:1035000025492648264B15F0D4F962B6BFF36F8FD4
:103510000323181C02DF3700FC37FB6C002B09D09B
:103520000121204A204816F085FAF86CFFF73AF896
:103530000023FB64200016F0FBF8FC36F06420004A
:10354000FFF7D2FD031E1AD00121184A164816F0C3
:1035500075FA280013F014FB2000FEF771FF0C220F
:103560004243134B9B185888002803D022001F2188
:10357000FFF7BEFB2000FFF715F8FFF7E5FE01207F
:10358000AFE7C046FC000020000000203001002012
:10359000540100204BE2010070E00100ADE20100A7
:1035A000B70B0000A8E401006CBC010086E4010038
:1035B000F0120020F0B589B000AF0C001600786062
:1035C000002905D1FFF71CFD041E08D169208CE0FD
:1035D000887AFEF72DFF4F4B834200D096E00825F6
:1035E00000210122781917F013FE2000FEF728FFB2
:1035F0000C224243484B20009B187A199A6016F01F
:1036000097F8464B0100180017F0EBFDFFF79CFE02
:1036100018F0F8F9424A434B12589A421DD13F48DC
:1036200017F0F0FD0500A0200021C002FFF750FFB9
:10363000002810D1D4233C4A5B003C493C4815F09B
:1036400038F93C48796815F034F962B6BFF36F8FEA
:103650000323181C02DFAC42E1D10821A022002381
:10366000D202781813F0AEFA051E11D0D7232E4AD5
:103670005B0031492E4815F01CF92A002F48796863
:1036800015F017F962B6BFF36F8F0323181C02DF22
:103690002000FEF7D5FE0C2242431F4BD55C002DC7
:1036A00029D06E468AB06A46B221254BD561536156
:1036B0007B6824489361244B10321361234B8901AA
:1036C0009382234B136016F0C1F92000B546FEF734
:1036D00069FF2800093809280BD8FCF7EFFC190A04
:1036E0000A08050A0A0A0A170C20404207E00D20C2
:1036F000FBE70520F9E7002E04D034600020BD462A
:1037000009B0F0BD2000FEF74DFFF7E71620ECE70B
:103710006F20EAE740060020F0120020540100204C
:1037200008000000581100204BE20100C3E4010032
:10373000ADE20100CBE40100EBE40100F4E40100A0
:1037400039E501006CBC0100EADB01000204000065
:10375000050000010C23F0B585B000AF0021A4489E
:10376000FA18FFF727FF041E6CD1FC68E3681B788A
:10377000002B09D19F4D280018F037F801000923CC
:103780002800194018F033F82000FEF70BFF0C2337
:1037900000219948FA18FFF70DFF041E52D1FE6868
:1037A0000822F16895480131954D18F072F8300003
:1037B000FEF7F8FE0C2321009248FA18FFF7FAFEF4
:1037C000041E3FD12A00F8687032C368597811701E
:1037D000DA78997812020A43290072310A802A00A5
:1037E0001979713211701A7AD97912020A432900B3
:1037F00074310A805A799B791B0213432A0076326E
:103800001380FEF7CFFE0C2321007F48FA18FFF744
:10381000D1FE041E16D12800FE684022F1688030D7
:10382000013118F036F83000FEF7BCFE2B004022C4
:103830007C331B78134209D10121744A744816F075
:10384000F9F8133C2000BD4605B0F0BD0C23210063
:103850007048FA18FFF7AEFE041EF3D12800FE6888
:103860000822F168D830013118F013F83000FEF763
:1038700099FE0C2321006848FA18FFF79BFE041EEE
:10388000E0D1FC68E268937851781B020B430AD0C0
:10389000D178002907D02900FE31CB80D1785F484C
:1038A0000A0017F0B5FC2000FEF77CFE2B001F225B
:1038B000FE335A842B007C331A78202316001E40D6
:1038C0001A4214D102215648FFF79AFB041E00D178
:1038D00082E002210C3015F06CFF012321000370FF
:1038E000467032004E48FFF765FE041EAAD12B0039
:1038F0009C331B781B0722D50C2300214948FA185A
:10390000FFF758FE041E9DD1F868C3689A7859786D
:1039100012020A43D9789C79090411431A792402C6
:1039200012060A4359790C43D9791B7A09042143B9
:103930001B060B432900E0310CC1FEF733FE0821C2
:103940003948FFF75DFB041E46D008210C3015F006
:1039500030FF2B00D8331A782F23920700D4203B56
:1039600000222100037042708270C27002714271A5
:103970008271C2712C48FFF71DFE041E00D061E762
:103980002E007C352B78FE36F1889B0626D4002944
:103990001CD10C232548FA18FFF70CFE041E00D09A
:1039A00050E7F388FC68002B0DD1E26893785178DA
:1039B0001B020B43F380517913790902194317480D
:1039C0000A0017F025FC2000FEF7ECFD082118483E
:1039D000FFF716FB041E2FD1692407E00029F5D15B
:1039E000144A0B48013116F025F80524644229E7F2
:1039F000030C0000D4000020031000007800002019
:103A000000000020011000000210000058E5010035
:103A10006CBC01000320000002200000080100200F
:103A20006D0C00001C2000000120000005100000AB
:103A3000010C00007CE5010008210C3015F0B9FEF6
:103A4000102300220226037078334370683B210064
:103A50008270C670027142718271C3716048FFF753
:103A6000A9FD041E00D0EDE60C230100FA185D4804
:103A7000FFF7A0FD5C4D5D4A002800D096E0FB6892
:103A80005B49DC68A37862781B021343032B02D8DE
:103A9000584A990089586E468AB06A46D361802395
:103AA000916193219B0013845348544B50611361DF
:103AB00089011032280015F0C9FF2379E2781B0232
:103AC0001343A278617812020A43B5464849022A94
:103AD00004D1052B02D84A4A990089586E468AB00B
:103AE0006A46D3618023916193219B0045481384EA
:103AF000424B5061136128001032890115F0A6FF76
:103B00006079B5463A4D032802D83F4B8200D5581C
:103B1000217AE37909021943A37A627A1B021343DB
:103B2000E27AA67912041A43237B6C461B061343E0
:103B30008CB06A467B60354B516253617B68F321E0
:103B4000936280239B0095619385274D304BD06114
:103B50001361166289011032280015F077FFA5461F
:103B6000F868FEF71FFD0C230021FA182948FFF71B
:103B700021FD294A7860002818D1FE68274CF16899
:103B8000274B0222013120003B6017F082FE3000FB
:103B9000FEF708FD23785B070CD50C2379682148D4
:103BA000FA18FFF707FD002811D01F4A022128004C
:103BB00015F040FF00F0A0FC041E00D042E601F02A
:103BC00071FF041E00D03DE6FFF710FB3AE6F868EF
:103BD000C3685A783B68C0331A70FEF7E3FCE9E724
:103BE000010C000001FC00006CBC01009FE501001D
:103BF000C8E3010010BF0100C3E50100040000019B
:103C0000F8BE0100DCE50100E8BE0100F4E50100BA
:103C10000700000102FC000021E60100C1000020B5
:103C20000000002003FC00004AE6010010B5FFF789
:103C300091FD034B1B68002B00D0984710BDC04678
:103C400008130020F8B5204F0500386F17F052F91F
:103C5000002807D101211D4A1D4815F0EBFE132451
:103C6000644223E003211B4C4942200015F0F3FE7F
:103C70000121200015F0E6FE0126304222D1164B2C
:103C80001D6016483200310017F0C2FA144817F0D0
:103C900082FA386F134983681B689847041E07D05F
:103CA00023003100104A0A4815F0C8FE2000F8BD74
:103CB000002D03D1FFF74EFD0400F7E70B4813F08A
:103CC00043F9F3E77824CBE7FC00002073E601001A
:103CD0006CBC0100D400002008130020300100203B
:103CE00054010020913100008BE60100C400002047
:103CF000F7B5124B05001B780C007F2B1BD9002C4D
:103D000001D12000FEBD2600082C00D90826002184
:103D10000B4801AAFFF74EFC0028F3D1019F3200A7
:103D2000F9682800013117F0B4FD3800FEF73AFCBD
:103D3000AD19A41BE3E786204042E3E79B00002087
:103D40001820000070B504000E000B480321FFF797
:103D500057F9051E0DD003210C3015F02AFD047013
:103D6000240A44708670002229000348FFF722FCD1
:103D700070BD69204042FBE706040000F0B583787F
:103D8000427889B01B0200AF13433B60F0233968CF
:103D90001B020B430021644A04001088F96098421A
:103DA00003D1624B11801B78FB60E3780025012B67
:103DB00001D15F4B1D78261D300015F0D1FD31007B
:103DC00000282DD0102208239B18D81915F0BEFD0D
:103DD00011232100F8180622113117F05AFD012392
:103DE000BB60E378012B2DD03000FEF733FC6C462E
:103DF00088B06A464F4BE221536180239B00938336
:103E00004D4B906113614D484901103215F01EFE73
:103E10001321A5463868FFF795FFBD4609B0F0BDF0
:103E2000280015F07BFE102508235B1901000722EE
:103E3000D81917F02EFD07223100781917F029FD47
:103E40002379CDE7102208239B18D819FEF79EFD91
:103E5000E3780500012B0AD100F0E8FC81217860AD
:103E60004942103015F0F7FD786815F0A4FE002DDA
:103E7000BAD0A37862781B02134310212B80082349
:103E8000072628005B183200D919703017F001FDA1
:103E9000237EE27D1B0213432A0086321380A37E19
:103EA000627E1B0213432A008C321380237FE27E42
:103EB0001B0213432A008E3213800022E3786A72B9
:103EC000EB70012B1CD1BB6828003B74102332001F
:103ED000F918773017F0DDFC00F0A8FC2800297AEB
:103EE000174C7143320009197E3017F0D2FC3F2184
:103EF000E034626823680A40134301D000F070FE8A
:103F00000721280001F028F9FB68002B04D00121CB
:103F100028006B7201F020F9280001F05DFA2800FA
:103F200001F0FCF879E7C0469424002050250020D9
:103F30006F000020A7E60100030000016CBC010037
:103F40000000002010B5C16888B00878002803D0B0
:103F5000FEF788FD08B010BD6B4618708B784A7864
:103F60001B0213436A4653701B0A93706A46CB7850
:103F700001A8D3700B7BCA7A1B02134317226A4431
:103F800013701B0A53708B7B4A7B1B02134319224D
:103F90006A4413701B0A53700B7CCA7B1B021343C9
:103FA0001B226A4413701B0A53706A464B7C04310F
:103FB0005377072217F06DFC0B20084C06222100D6
:103FC000684417F066FC112006222100684417F0AF
:103FD00060FC6846FFF7D2FEBCE7C046D4DF0100B4
:103FE00070B5022105000B48FFF70AF8041E0DD03A
:103FF00002210C3015F0DDFB2B88002203701B0A18
:10400000437021000348FFF7D5FA70BD6920404294
:10401000FBE7C0461620000070B5042104000C30F8
:1040200015F0F0FB02008178C07855780002084353
:1040300003D011782200FEF75BFE002D04D0034868
:1040400012F09EFDFFF780F970BDC04630010020E0
:10405000B0B50321040000AF0C3015F0D3FB43785A
:104060000578807800021843E3681978124B98426B
:1040700014D16C468AB06A46916192210F4B104868
:104080005361104B1032D3600F4B890113820F4BD9
:10409000136015F0DBFCA546BD46B0BD002802D07C
:1040A0002200FEF725FE002DF6D0094812F068FD2B
:1040B000FFF74AF9F0E7C046350C0000C3E60100FF
:1040C0006CBC0100EADB01000103000004000001F8
:1040D0003001002070B501225242D3170E0000219A
:1040E0000500FEF7AFFB041E0BD11323094A0A4952
:1040F0000A4814F0DEFB62B6BFF36F8F0323181C6F
:1041000002DF200002210C3015F053FB05704670D1
:10411000200070BD02E8010070E00100ADE2010086
:10412000F7B5002407270B4D0190EE79E3B29E42CC
:1041300002D80220404209E0390061430198691821
:1041400015F0E0FC631C002801D02000FEBD1C001F
:10415000ECE7C0460000002070B5184E0622310082
:10416000050017F0A7FB002823D006211448FEF70E
:1041700047FF041E1FD0062229000C3015F020FB3B
:10418000210000220E48FFF715FA041E09D0030093
:104190000D3304D102210B4A0B4815F0BBFC200063
:1041A00070BD06222900300017F073FB0122074B77
:1041B0001A700024F3E769246442F0E769000020E4
:1041C0000520000038E8010074BC010068000020F0
:1041D00073B504000D1E0ED02800134915F092FC93
:1041E000002808D10722290054431048201817F04E
:1041F00050FB002076BD684615F074FB0028F9D10D
:104200006846FFF78DFF0028F5DA07267443074B51
:104210003200E4186946200017F03BFB002DE8D07F
:10422000320021002800E2E7C7DF01000000002083
:1042300070B50400002918D1002819D01E4915F0C6
:1042400061FC002814D12000FFF76AFF00282FDA54
:104250002378012B04D13F22A3799343C02B07D0AD
:104260000121164A164815F055FC162040421AE066
:10427000144DEB79012B1DD0134817F0B6FAC00787
:1042800007D4002CF1D020000B4915F03BFC00288E
:10429000EBD1EE792100731C3000EB71FFF798FF32
:1042A000002801D1300070BDEB79013BEB71FAE7DA
:1042B0007820DBE70C20D9E7C7DF010047E80100E1
:1042C00074BC010000000020D4000020F7B5041EDB
:1042D000174A07D00021174801AAFFF76BF9061EFD
:1042E00006D0154A0221154815F014FC0020FEBD29
:1042F000019F0622FD6812490135280017F0DAFAFD
:10430000002806D0062228000E4917F0D3FA00280C
:1043100003D13800FEF746F9E8E706222900601CC1
:1043200017F0B7FA38002670FEF73CF90120DEE7F7
:1043300075E80100091000008EE8010074BC01005E
:10434000D4DF0100CEDF010007B56846FFF7BEFFEE
:10435000044A0300D0710020834202D06946FFF76F
:1043600037FF0EBD00000020F0B52A4D89B0EC7972
:10437000002C16D12B00C2331A78012317001F40DE
:104380001A4214D1244A0221244815F0C3FB002705
:10439000EF7116260127EB799C4224D3002083423B
:1043A00003D100210800FFF743FF09B0F0BD6A46C2
:1043B00021001B48FFF7FEF8002801D0194AE2E768
:1043C000009EF1684B78002B04D13000FEF7EAF82C
:1043D000154AD8E71622023102A817F05AFA30001F
:1043E000FEF7E0F8D4E7310020236143C9186B469B
:1043F00069441839581C062217F04BFA6B46694677
:1044000020001F70FFF7E4FE0028CED10134E4B293
:10441000C1E7C04600000020ACE8010074BC010008
:1044200009FC0000D8E80100F8E80100F7B50D002C
:104430001C00019200280BD0002B09D002780B033E
:1044400010D56D0707D50121284A294815F062FBD0
:104450001620404205E015F072FB002801D101232F
:104460002370FEBD012631422DD0019B214E002B31
:1044700013D08B060AD407235343F35C012B13D0CC
:104480002370AD061DD5022213430BE03300D83351
:104490001B785B06EFD48620DBE707235343F35CEE
:1044A000012B01D023700CE007275743791C7118AA
:1044B00015F039FB0028D4D1F35D019A2370002A4E
:1044C000DFD10020CDE76D070CD507255543094EF8
:1044D000AB5D012BE6D1691C891915F024FBAE5D9B
:1044E0002670BEE715F02BFBFAE7C04621E9010074
:1044F00074BC01000000002070B50F4DEB79002B5B
:1045000002D00024200070BDFFF71EFF041E05D05E
:104510000A4A01210A4815F0FDFAF3E7EB79002B6E
:10452000EFD1FFF721FF041EF2D10648FFF714FE7A
:10453000041EE7D0044AECE70000002040E9010037
:1045400074BC0100010000205FE90100F0B50C001F
:1045500089B0202115000590FEF752FD019000283A
:1045600051D020210C3015F024F920220021039095
:1045700017F098F9039BED000133029363190025AE
:1045800007930023276804936368049A9A420CD324
:10459000079B0834A342F4D1039B0022019905989C
:1045A0001D70FFF707F809B0F0BD7A78A81C8318D2
:1045B00039781F2B11D91F231A1A092901D1002A72
:1045C0000ADC0121114A124814F068FD0198FDF738
:1045D000E9FF16204042E6E70821029ED3B2069387
:1045E000013373556B1CDBB2F154C0B279683018DB
:1045F00017F04FF9069E049B0236AD190133EDB258
:1046000004930837C0E76920E4E7C04682E9010067
:104610001CBC010010B507220349093017F04AF904
:10462000431E9841C0B210BDC7DF0100F8B5154B5D
:10463000067804000D001E70FFF7ECFF002809D17A
:104640001149300001F0B4F80521041E11D10C20ED
:10465000404213E0270009373900300001F0EAF842
:1046600000280CD13900207801F0A2F80621041EA0
:10467000EDD0200000F070FD00202C60F8BD162069
:10468000E6E7C0466F000020C0DF0100F8B54468CF
:1046900005000020630540D42F69874204D0012320
:1046A000200018401C4238D01C4E2B78F279002094
:1046B0009A4232D9072253431949981917F0FAF848
:1046C00000282AD00123200018401C4206D1703651
:1046D0003378082B02D8AB689F2B1ED930231C429D
:1046E0000CD0381E19D0E3060CD4E0239B021C40EA
:1046F0000C4BE418631E9C41E0B20EE0E30601D4CB
:10470000002FF2D1AA68EB6800209A4205D81F2A30
:1047100003D98022D2019342E7D9F8BD00000020DE
:10472000C7DF01000080FCFFF0B58BB01E0010ABAE
:10473000170004CB0C001B780290039312AB1D787A
:1047400001920021102206A817F0ACF8002D13D119
:104750000694079701222A4806A9FFF7F7FE041ED0
:1047600007D1039B002B35D102980421103017F09C
:1047700056F820000BB0F0BDFEF7E2FD00230090DC
:104780009C421AD100239E4220D10098FBF7D0FD15
:10479000092304AA1370009B507005930694079791
:1047A000012DD7D104AB022208930995D3E7DA0093
:1047B000A25C083A012A1FD901339F42F7D1E1E7F1
:1047C000DA00B25C083A012A16D90133019A9A42FA
:1047D000F6D1DAE7019B012206960793022D03D159
:1047E00009922A0004AB0893064806A9FFF7AEFE1B
:1047F0000028B9D00400BCE716246442B9E7C046DB
:104800000820000009200000436800201A070AD58C
:1048100001305A0307D4C022D2001340024A98182C
:10482000431E98410130704700FCFFFF004870476D
:104830001800002070B505000E001048012186B058
:10484000FEF7DEFB041E15D001210C30002E00D136
:10485000310014F0BFFF2A002000103203A9072303
:104860000096FEF7BBFB002221000448FEF7A2FEE3
:1048700006B070BD69204042FAE7C0460A20000039
:10488000F0B50F6991B03E0008920993721E9641EF
:104890000023884C069020000D000B93F6B216F012
:1048A000A4FF400700D4FFE02800FFF7EFFE002838
:1048B00002D116246442AFE0280015F057F90790A2
:1048C0000028F6D0069B10331800059316F08DFFD4
:1048D00001210123C0110140184200D0E6E00B2263
:1048E0000DA816F0DFFFAB6806AA1383EB686868B3
:1048F000538315F03FF9252106AA521810706E490E
:10490000200015F047F92B78069A069813706B4A29
:1049100013701D2206ABD218130069683200FFF72E
:1049200085FD041E78D106980930002F16D0072285
:10493000296916F0AEFF2800FFF766FF01236A68B9
:1049400006001A4247D10CAB920504D4169A002AED
:1049500001D1022E4FD102221A710DE007225849CF
:1049600016F097FF2800FFF74FFF01236A68060043
:104970001A42E8D006AB1F770F215248FEF740FBE2
:10498000041E00D194E00F220CA90C3014F018FF83
:10499000210000224B48FEF70DFE041E3CD1002FE3
:1049A0002DD06B68DB073AD401210698FFF742FF50
:1049B000041E00D170E00121434A444814F06EFB0C
:1049C0000B9D002D28D02800002100F0C5FB2800F9
:1049D00000F0A4FB20E00123D20600D503331E2003
:1049E0000CAA137106ABC0180722296916F051FFF3
:1049F00000230793C0E703221A71169BF9E7079B70
:104A0000099A0193179B089900930698169B0296A2
:104A1000FFF78AFE041EC4D0200011B0F0BD069836
:104A20000BA9FFF703FE041EBED003000C33F3D125
:104A3000002FF1D16B689B07EED401246B685B08F3
:104A40009C43012722000E2105983A4015F0A6F854
:104A5000721E53425A41023E73425E41082105983C
:104A6000D2B215F09BF809210598F2B215F096F82C
:104A70006A680A2105983A4015F090F80B21079AC8
:104A8000059815F08BF86A680D21920805983A4050
:104A900015F084F80024BFE70B98002801D000F03F
:104AA0003DFB002FCDD1C8E70B2403E7782401E7B5
:104AB0006924FFE6D4000020FFFDFFFF6F00002007
:104AC000C7DF0100062000009BE901001CBC0100BB
:104AD00073B505001600069A0C00019200930A00B7
:104AE000330029001248FFF7CBFE05000220210009
:104AF00000230124FF309E4201D1280076BD0A88A0
:104B0000824205D14A68002A02D01278224202D19C
:104B100001330831EFE7074C0749200016F03DFC50
:104B2000F02200232000120312F0B8FAE5E7C04695
:104B30001800002030000020C14B000070B51A4D55
:104B40000124280015F037F8184E1949300015F0E7
:104B500021F8300016F049FE030000201B061ED588
:104B6000300016F042FE8012204214D02800FFF7D9
:104B700051FD104A0300107E002B11D105220E4971
:104B800000F092FE041E06D00021417200F0E4FA0B
:104B9000200000F0C3FA00212800FFF74BFE70BD93
:104BA00006220649ECE7C046180000202800002035
:104BB000FFBFFFFF00000020C0DF01002100002038
:104BC00010B5FFF7BBFF031E04D00221024A0348C1
:104BD00014F06BFA10BDC046B6E901001CBC010020
:104BE000F0B5324C85B0200016F0FFFD01264004E0
:104BF0003AD5200016F0F9FDC011304234D1200022
:104C000016F0F3FD801230422ED0294F03A9380050
:104C1000FFF70CFD002827D13800FFF7FBFC0190BF
:104C2000200016F0E2FD350080138543200016F0C9
:104C3000DCFD8012B540304200D03543200016F034
:104C4000D4FD800401D504231D4302AB29003800A4
:104C5000019A0333FFF7EAFB051E07D001212B0061
:104C6000144A154814F021FA05B0F0BD01213800AE
:104C7000FFF7E0FD039E002803D1300000F04EFA5C
:104C8000F2E72900300000F067FA0C49200014F028
:104C900081FF0500300000F041FA8021C9010D427A
:104CA000E2D0200016F0BBFDDEE7C0462800002061
:104CB00018000020D5E901001CBC0100FFBFFFFF68
:104CC00070B505000C4B1C68002C08D0143C236800
:104CD000002B02D02800697A98476469F4E7074CF2
:104CE000074B9C4200D370BD2368002B02D02800E4
:104CF000697A98471834F3E740130020FCBB0100A1
:104D0000FCBB010010B50400FDF79AFB044B010148
:104D1000C918200014F04CFEFEF716FB10BDC0466B
:104D20000C130020002370B54D6804008E680648FF
:104D30004B608B6016F055FA002D04D06E223100C6
:104D400020005242A84770BD7805002070B50022AF
:104D500005000E00002300210848FDF795FB041E06
:104D60000AD0FDF76DFB064A03019B1820003200B4
:104D7000290014F0F9FD0400200070BD1406002085
:104D80000C13002010B5FFF72BF9031E04D00121EE
:104D9000024A034814F089F910BDC04612EA010026
:104DA00034BC010070B50500002200230E4811F04C
:104DB00009FF002811D10D4B1C68002C06D0143CB3
:104DC000A368002B00D098476469F6E7084C094BAC
:104DD0009C4203D3280012F0B7F870BDA368002BE3
:104DE00000D098471834F2E76005002040130020F7
:104DF000FCBB0100FCBB0100F8B50400EFF310831D
:104E000072B6E169002905D1002B02D162B6BFF369
:104E10006F8FF8BD0A68206AE261814215D0002BCD
:104E200002D162B6BFF36F8F00254E688F680848C5
:104E30004D608D6016F0D5F9AE4203D02A003900DE
:104E40002000B047FEF780FAD8E72262E7E7C046C5
:104E500078050020034B0448DB885A1E93415B42CF
:104E600018407047FE0000200801002030B5040003
:104E700016F0C8FD0B4B0C4A1B580D008BB093422B
:104E800004D12000FFF7B8FF0BB030BD243421005F
:104E9000100016F058FA002DF6D06946200016F0E2
:104EA0005EFAF1E7080000005811002070B50D000F
:104EB00004000026AE4202D10024200070BD200074
:104EC00001220021C83016F063FC2300D0330028F3
:104ED00002D11C000136EDE7002CEDD0C8220021E4
:104EE000200016F0DFFC20000449403016F055FA8F
:104EF00020000349243016F00EFADEE7C159000005
:104F0000A39C0100F7B50D00012104001600FFF776
:104F1000ADFF0021280014F0AEFD012E1CD0022EA2
:104F200046D12369002B07D035480121354A14F0BA
:104F3000B5F8200014F0BAFE280014F0F9FB206147
:104F40002269138A012B3AD8208814F096FD01219A
:104F5000280014F090FD0EE02069002808D12A4AAC
:104F60003100274814F09AF8200014F09FFE02E068
:104F70002F8A002F03D12800FDF714FBF7BD0C305A
:104F800014F057FC87420CD9204A31001C4814F019
:104F900085F800222000216900F056FF00232361DC
:104FA000E9E720692A8AE9680C3014F009FCC7E7B0
:104FB00001213300164A124814F077F8D4E7D2687A
:104FC0005678117836020E430436B6B2B342BBD3DC
:104FD0002800FDF7E7FA21690B8A9E4209D20121D8
:104FE0000C4A0748009614F068F8200014F05EFEA2
:104FF000C4E7002301222000236100F025FFBDE764
:1050000034BC010033EA010050EA01006EEA0100FD
:1050100095EA0100B3EA010070B504000121BC303B
:1050200016F0E5FB051E0AD1200014F049FEB83445
:10503000064A2560D16A002904D1D4629462FEF741
:1050400083F970BD0C60D462F9E7C046FC00002013
:10505000F7B52E4B2E4E9C6A002C02D1002528005D
:10506000FEBD2C4B5A8B002A06D03300FE33DB8862
:10507000002B05D19B68FFDE1B68002BEED0F4E708
:105080003300FC335B69002BE8D0234B1B68002BFB
:10509000E4D02300B83B0193A4331B68002BDDD080
:1050A0002300103B1B68002BD8D027000C3F3B6827
:1050B000002BD3D0019DAA7A072A0ED12800984749
:1050C00000280AD02000083016F08FFB022804DCEC
:1050D000280014F0F5FD0500C1E73300FC339A6A9F
:1050E000002A05D01168D86A9962824200D1D9623B
:1050F0000021201D16F07BFB3B6801989847002893
:10510000ADD00198FFF788FFA9E7C046FC0000205A
:1051100000000020140600207805002037B58578AF
:10512000C4780121C83016F053FB019001A816F095
:105130005CFB01280BD1064811F022FD054811F057
:1051400003FF012D03D1012C01D1FFF749FD37BD2C
:105150006005002010020020F8B5857A04000E00DA
:1051600000AF8D421AD1544B082D02D8534BAD00DD
:10517000EB586C4688B06A46936180239B00504987
:105180009383504B51611361E42100234E48103248
:105190004901FCF7A1FAA546BD46F8BD8172002D74
:1051A00004D18378082B01D014F08AFDA07A082856
:1051B00000D97FE0FAF778FF2152F0F0F0F0F00527
:1051C000F000A378042BE7D00021404812F060FDE6
:1051D00000236363A363E378012BDDD1A378012B64
:1051E00003D12300032294331A702000A02200234D
:1051F0009202403011F01EFFCEE7A378042B03D1BA
:105200002000FFF78BFFC7E7082DC5D82800FAF765
:105210004BFF1E0517F7F7F7171E1E002500403538
:10522000280016F0C6F801212000FFF71FFE20001D
:1052300014F03CFD00220023280011F02FFFABE703
:10524000637A002BDCD02000FFF73AFDD8E7204A34
:10525000330002211C4813F028FF9DE7637A3E2BA0
:105260000FD16D4688B06A461A4B9461536103238F
:105270001361C4210023144810324901FCF72CFAB1
:10528000AD466169002902D1FEF75EF884E70B683C
:10529000A2696361914200D1A3612000FFF742FD42
:1052A0000D4B0E48DB885A1E93415B42184011F0AB
:1052B00067FCE6E70A4ACBE7CEEA0100A0BF01009F
:1052C000D8EA01000300000134BC010020020020E4
:1052D000E9EA010000EB0100FE00002008010020C7
:1052E00027EB010070B505000E002A0001210A48D5
:1052F00014F0F9FC041E02D10024200070BD837854
:105300003342FAD102212B00044A054813F0CDFEA6
:105310002000FFF703FFEFE7180C002043EB01002C
:1053200034BC0100F8B5070008480D00160014F061
:10533000C7FC041E05D083783B4203D12000FFF751
:10534000EDFEF8BD3100A847F8E7C046180C002074
:1053500010B5002201200249FFF7E4FF10BDC0464E
:10536000759C0100034BC31A03481B115843C0B27C
:105370007047C046180C0020C54EECC470B51C0028
:1053800006000D00144308D016F03CFB0D4C0E49EE
:105390002058884201D100221300002E00D10B4E6C
:1053A000300014F098F9041E06D10221084A094879
:1053B00013F074FE200070BD691D0C3014F0EDF97F
:1053C000F8E7C046080000005811002090050020B2
:1053D0005AEB010034BC010010B50400044811F080
:1053E000B3FD200000F0BAFB2000FFF769FC10BD00
:1053F00000020020F0B500258BB000AFFD617D629A
:10540000FFF726FE0600A84225D00400837AA434C4
:10541000072B32D06B4688B07B616A46894B90611E
:10542000536103231361C4212B00874810324901C3
:10543000FCF752F9182108227B6952189D46193948
:1054400030002368D21998470100013D002905D199
:105450003000FFF763FEBD460BB0F0BD30007B6A45
:10546000FA6914F0EEFB18210822521830002900C6
:105470002368D21998470100E8E718200822734BE7
:10548000734D3B601218E98830002368D2199847A1
:1054900078610028DCD0EA883B6A9A420BD333005B
:1054A000A83318201C680C231C221B1879693000B3
:1054B000DB19BA18A0473B6AFB60FB693B617B6A5A
:1054C0007B607B691B8A002B00D1B8E0786914F0FF
:1054D00096FAB86000281DD005236C4688B06A464D
:1054E0005B42936104235B49D66151611361812161
:1054F0000023554810328901FCF7EEF83000796935
:10550000A5467B6AFA6914F09CFB1321300014F065
:1055100009FC9DE73D685048FE35EB885A1E9341D3
:105520005B4218400022002311F04CFB002801D000
:105530000C23D2E700220023484811F0F3FA041E9E
:10554000F6D03B6943607B688360404B7B60ED88AD
:10555000FB68AB4200D8BD897B691B8AAB4243D94B
:10556000786914F0E5F82900FFF7F0FB32007B685A
:105570003861FE33DB88F968C4321578994236D831
:105580000235EDB2BB6813703300C033FB600121FC
:10559000F86816F010F900232360B369002B29D1B5
:1055A000B4617461B378012B27D1386904210C30C0
:1055B00014F018F9022332889D432D031543AAB233
:1055C000120A42703A690570128A043A827091B2E6
:1055D0003A69090AC17010001376FDF785FD051EB2
:1055E0000DD1FDF7B1FE33E729007869BCE701234F
:1055F000BB60C7E71C60B461D4E716256D4201218A
:10560000F86816F0E5F830002100143014F0D8FAEC
:10561000134A2B0001210C4813F047FD3869FCF7B1
:10562000C1FF30002100FFF77DFB094B0A48DB88F2
:105630005A1E93415B42184011F0A2FA4CE77A23BC
:105640004BE7C04683EB010034BC010000000020A2
:10565000FE0000209AEB01000801002078050020E0
:1056600086E4010070B5051D0400280016F0BDF8A1
:10567000000517D523002200863388321B88128844
:105680009A420FD822008A3212889A420AD3230003
:105690008C331A6804331B689A4203D116492800D8
:1056A00016F0CAF8154B1D68002D10D0143D2E6958
:1056B000002E0AD02300220021008E338C32863146
:1056C00020001B8812880988B0476D69ECE70C4DF3
:1056D0000C4B9D4200D370BD2E69002E0AD02300D2
:1056E000220021008E338C32863120001B881288E4
:1056F0000988B0471835EBE7FFF7FFFF401300209C
:10570000FCBB0100FCBB0100F8B5070008000D0060
:10571000FDF7B2FC061E02D100263000F8BD144B86
:105720001C68002C10D0143CE368002B01D1646984
:10573000F7E72900380098470028EDD02800FDF74A
:105740009BFC0028F3D1E7E70A4C0B4B9C42E4D2C8
:10575000E368002B01D11834F7E729003800984797
:105760000028D9D02800FDF787FC0028F3D1D3E723
:1057700040130020FCBB0100FCBB010002000B4BEE
:1057800014321968002907D141615968002907D1ED
:105790005A601A60002070478A4204D00968F1E715
:1057A0000A605A60F6E711204042F4E740130020F7
:1057B00070B506000D000D480121FFF777FB041EB0
:1057C00012D0072206722900703016F062F8012309
:1057D000A3702300064AA4331A60064A1C3B1A62CF
:1057E000054A5A62054A1A60200070BD180C002054
:1057F000655C0000079C0100FB9B0100180028006D
:1058000070B505000A480E0014F05AFA041E05D0BF
:105810008378012B04D02000FFF780FC002405E0F2
:105820003200290014F09EFA0028F4D0200070BD48
:10583000180C0020B0B500AF0D00FFF7E1FF040029
:105840000020844221D02800FCF704FFA37A1049ED
:10585000082B02D80F4A9B0099586D468AB06A46B9
:105860000D4B946153610D4BD06153620C4B11622F
:105870001361C22100230B4810328901FBF72CFF72
:105880002000AD46FFF74AFC0120BD46B0BDC04632
:10589000CEEA0100A0BF0100BDEB0100010302043C
:1058A0000500000234BC0100F8B505000F480E00E9
:1058B000170014F005FA041E05D08378012B04D0DC
:1058C0002000FFF72BFC00240DE0002E05D0320055
:1058D000290014F047FA0028F2D0A37ABB42EFD196
:1058E000237AAB42ECD12000F8BDC046180C002052
:1058F000F8B507000D0016480E21FDF781FB061EC6
:1059000022D00E210C3013F054FF04000E2200218F
:1059100015F0C8FF3B88002223701B0A63702B8898
:105920003100A3701B0AE3706B88094823711B0ABE
:105930006371AB88A3711B0AE371EB8823721B0AA6
:105940006372FDF737FEF8BD69204042FBE7C046B1
:105950001320000070B5040008000D00FDF78CFB5B
:10596000002828D0154B1A7802231A4207D1E37871
:10597000002B0ED02900200000F096FA1AE0220039
:10598000953212781A42F2D0201D15F02EFFC00475
:10599000EDD429002000FFF7ABFF00280AD1230037
:1059A0002A8888331A806A8892345A80AA881A8191
:1059B000EB88238070BD16204042FBE7D800002012
:1059C00073B50400403CA37A0500002B1FD12000D2
:1059D00014F077FA2A4B1D68002D08D0143D6B682F
:1059E000002B02D02000617A98476D69F4E7254DBD
:1059F000254B9D4203D32000FFF790FB73BD6B68DE
:105A0000002B02D02000617A98471835F0E7A37880
:105A1000012BF3D106003C3E1C49300015F00CFF71
:105A2000000519D5AB6C694600932B6D20000193DE
:105A3000FFF790FF031E09D11549300015F0FCFE59
:105A400080213000890015F0EAFED7E7114A0221D3
:105A5000114813F02AFBF3E7104B69460093A82383
:105A600020009B030193FFF775FF031E05D18021E2
:105A70003000C90015F0D3FEE2E7094AE7E7C04667
:105A800040130020FCBB0100FCBB0100FFF7FFFF3F
:105A9000FFFBFFFFF6EB010034BC010018002800FB
:105AA0001BEC010010B50D4C200015F074FB20001C
:105AB0000B4915F096FB20000A4915F092FB2000D7
:105AC000094915F08EFB14F0E6FD15F04FF8041EA1
:105AD00001D114F049FA200010BDC046780500201D
